:020000040800F2
:100000000000000041000008000000005D01000841
:1000100000000000000000007B000008000000005D
:10002000000000000000000000000000BD0100080A
:100030000000000000000000000000008B0000082D
:10004000DFF85CD000F00EF900F072FA00F02EF943
:100050004FF000004FF011314FF022324FF03333A8
:100060004FF0443C4FF0553EFFFFFFFF01DF00F033
:10007000B3F800F093F80B488047684600F01EB9CB
:10008000B0E8F00F80F3088808472DE9F00F00B5BD
:10009000704601A900F0ACF801BCBDE8F00F0047C4
:1000A000000001203D04000810B5203AC0F00B808C
:1000B000B1E81850203AA0E81850B1E81850A0E86C
:1000C0001850BFF4F5AF5FEA027C24BFB1E81850C6
:1000D000A0E8185044BF18C918C0BDE810405FEA36
:1000E000827C24BF51F8043B40F8043B08BF7047B2
:1000F000D20728BF31F8023B48BF11F8012B28BFB7
:1001000020F8023B48BF00F8012B70474FF0000277
:1001100000B5134694469646203922BFA0E80C50FD
:10012000A0E80C50B1F12001BFF4F7AF090728BFD8
:10013000A0E80C5048BF0CC05DF804EB890028BF54
:1001400040F8042B08BF704748BF20F8022B11F07D
:10015000804F18BF00F8012B7047000002A000F08C
:10016000C5F900BFFEE70000486172644661756C26
:10017000745F48616E646C65720A0D000146064842
:1001800021B1026822F00102026003E0026842F03D
:1001900001020260704700000C0C01400548016834
:1001A00041F0080101600448016841F0010101606B
:1001B0007047000018100240000C014010B502A06A
:1001C00000F094F910BD00005356435F48616E641F
:1001D0006C65720A0D0000000348044981604160AB
:1001E000072101607047000010E000E000127A0073
:1001F0002DE9F04706468846184F786840F00070B1
:10020000786000F0FDF808B9BDE8F0871448006890
:10021000401C60B90020124908600846006800F0E0
:10022000DBF8814631464846FFF72AFFECE70C48E9
:10023000056800F0C3F80446A5420DD041462846A3
:1002400000F060F9204600F0C7F8814604480460D9
:1002500031464846FFF714FF00BFD5E700ED00E048
:100260000800002010B509480949884202D0094A0F
:10027000FFF71AFF08480949884202D0084AFFF7E9
:1002800013FF08490848FFF741FF10BD00000008B0
:100290000000000880050000000000208005000824
:1002A0000C000000800800000C0000200248416A99
:1002B00041F480214162704700ED00E070B50446D2
:1002C000144D15A000F012F919A0216800F0D0F823
:1002D00019A0616800F0CCF819A0A16800F0C8F876
:1002E00019A0E16800F0C4F819A0216900F0C0F875
:1002F00019A0616900F0BCF819A0A16900F0B8F874
:1003000019A0E16900F0B4F8A86AA862A069001D0C
:10031000A06170BD00ED00E05573616765466175D1
:100320006C745F48616E646C65720A0D00000000B9
:10033000523020203D200000523120203D2000007E
:10034000523220203D200000523320203D2000006A
:10035000523132203D2000004C5220203D20000030
:10036000504320203D200000785053523D20000093
:10037000F0B50446D018403800250560456085601A
:10038000C560056145618561C5610162456285623F
:10039000C5620563456384634FF08075C563054D91
:1003A0002E682D686D1C034F3D60034D45F82600F7
:1003B000F0BD0000000000200C080020044908687F
:1003C000401C04490968884200DB00207047000097
:1003D00008000020000000200146024850F82100DB
:1003E000704700000C080020044900BF086800F0B6
:1003F00020000028FAD0486870470000003801400B
:1004000001480068704700000400002070B50346F2
:100410000C4603E025781D70641C5B1C151EA2F1C0
:100420000102F7D170BD30B5034601E019705B1CC5
:10043000141EA2F10102F9D130BD000010B54FF435
:100440008063084A61210848FFF792FF4FF48063F8
:10045000064A62210448FFF78BFF00F059F800209C
:1004600010BD00000C000020210500080C04002035
:1004700070B505460C46284600F038F8204600F0D6
:1004800013F802A000F032F870BD00000D0A000061
:10049000044900BF0A6802F08002002AFAD04860CE
:1004A000704700000038014070B506460EA000F00D
:1004B0001DF8072514E0A80026FA00F000F00F044C
:1004C000002C07DB092C05DC04F13001C8B2FFF772
:1004D000DFFF04E004F13701C8B2FFF7D9FF6D1E5A
:1004E000002DE8DA70BD00003078000010B5044639
:1004F00003E02078FFF7CCFF641C20780028F8D1B7
:1005000010BD0000014A42F8201070470C0800207E
:1005100001200249086000BFFEE70000040000203F
:100520000446E5B202E02846FFF7B2FFFBE7000011
:1005300010491148026844F204031A4302600F484C
:10054000026822F0F0020260026842F0900202604B
:10055000026822F470620260026842F48062026003
:1005600045228A6042F20C02CA600A6922F44052B3
:100570000A61704700380140181002400408014029
:0C0580000000000000000000FFFFFFFF73
:0400000500000000F7
:00000001FF
