:020000040800F2
:100000000000000041000008000000003D01000861
:1000100000000000000000007B000008000000005D
:100020000000000000000000000000009D0100082A
:10003000000000000000000000000000D1010008E6
:10004000DFF83CD000F0E2F800F0EEF900F002F941
:100050004FF000004FF011314FF022324FF03333A8
:100060004FF0443C4FF0553EFFFFFFFF01DF00F033
:10007000A3F800F083F803488047684600F0F2B820
:10008000000001206B03000810B5203AC0F00B807F
:10009000B1E81850203AA0E81850B1E81850A0E88C
:1000A0001850BFF4F5AF5FEA027C24BFB1E81850E6
:1000B000A0E8185044BF18C918C0BDE810405FEA56
:1000C000827C24BF51F8043B40F8043B08BF7047D2
:1000D000D20728BF31F8023B48BF11F8012B28BFD7
:1000E00020F8023B48BF00F8012B70474FF0000298
:1000F00000B5134694469646203922BFA0E80C501E
:10010000A0E80C50B1F12001BFF4F7AF090728BFF8
:10011000A0E80C5048BF0CC05DF804EB890028BF74
:1001200040F8042B08BF704748BF20F8022B11F09D
:10013000804F18BF00F8012B7047000002A000F0AC
:1001400067F900BFFEE70000486172644661756CA4
:10015000745F48616E646C65720A0D000146064862
:1001600021B1026822F00102026003E0026842F05D
:1001700001020260704700000C0C01400548016854
:1001800041F0080101600448016841F0010101608B
:100190007047000018100240000C014010B502A08A
:1001A00000F036F910BD00005356435F48616E649D
:1001B0006C65720A0D0000000348044981604160CB
:1001C000072101607047000010E000E000127A0093
:1001D00010B50C4C0C48006818B10020FFF7BEFFAA
:1001E00002E00120FFF7BAFF0748006808B90120C4
:1001F00000E0002004490860606840F00070606022
:1002000010BD000000ED00E00000002010B509481E
:100210000949884202D0094AFFF736FF08480949D0
:10022000884202D0084AFFF72FFF08490848FFF725
:100230005DFF10BD00000008000000087804000009
:100240000000002078040008040000000000000006
:10025000040000200248416A41F480214162704755
:1002600000ED00E070B50446144D15A000F0D0F884
:1002700019A0216800F08EF819A0616800F08AF8D2
:1002800019A0A16800F086F819A0E16800F082F8D2
:1002900019A0216900F07EF819A0616900F07AF8D0
:1002A00019A0A16900F076F819A0E16900F072F8D0
:1002B000A86AA862A069001DA06170BD00ED00E001
:1002C00055736167654661756C745F48616E646CF7
:1002D00065720A0D00000000523020203D20000011
:1002E000523120203D200000523220203D200000CD
:1002F000523320203D200000523132203D200000AA
:100300004C5220203D200000504320203D20000082
:10031000785053523D20000030B50446651815440E
:10032000E81830BD044900BF086800F0200000282C
:10033000FAD04868704700000038014070B50346A5
:100340000C4603E025781D70641C5B1C151EA2F191
:100350000102F7D170BD30B5034601E019705B1C96
:10036000141EA2F10102F9D130BD00B585B0012003
:100370000490022003900320029004200190DDE904
:100380000132DDE90310FFF7C7FF0090002005B040
:1003900000BD000070B505460C46284600F038F850
:1003A000204600F013F802A000F032F870BD000003
:1003B0000D0A0000044900BF0A6802F08002002A0A
:1003C000FAD04860704700000038014070B506461A
:1003D0000EA000F01DF8072514E0A80026FA00F092
:1003E00000F00F04002C07DB092C05DC04F13001C0
:1003F000C8B2FFF7DFFF04E004F13701C8B2FFF72E
:10040000D9FF6D1E002DE8DA70BD000030780000C5
:1004100010B5044603E02078FFF7CCFF641C207879
:100420000028F8D110BD000010491148026844F2BC
:1004300004031A4302600F48026822F0F0020260CF
:10044000026842F090020260026822F47062026068
:10045000026842F48062026045228A6042F20C0225
:10046000CA600A6922F440520A61704700380140AC
:0C047000181002400408014000000000C9
:0400000500000000F7
:00000001FF
