Component: ARM Compiler 5.06 update 6 (build 750) Tool: armlink [4d35ed]

==============================================================================

Section Cross References

    main.o(i.mymain) refers to main.o(i.add_val) for add_val
    start.o(RESET) refers to start.o(.text) for Reset_Handler
    start.o(RESET) refers to exception.o(i.HardFault_Handler) for HardFault_Handler
    start.o(RESET) refers to exception.o(i.SVC_Handler) for SVC_Handler
    start.o(RESET) refers to systick.o(i.SysTick_Handler) for SysTick_Handler
    start.o(.text) refers to init.o(i.SystemInit) for SystemInit
    start.o(.text) refers to uart.o(i.uart_init) for uart_init
    start.o(.text) refers to exception.o(i.UsageFaultInit) for UsageFaultInit
    start.o(.text) refers to systick.o(i.SysTickInit) for SysTickInit
    start.o(.text) refers to led.o(i.LedInit) for LedInit
    start.o(.text) refers to exception.o(i.UsageFault_Handler) for UsageFault_Handler
    start.o(.text) refers to main.o(i.mymain) for mymain
    string.o(i.put_s_hex) refers to string.o(i.puts) for puts
    string.o(i.put_s_hex) refers to string.o(i.puthex) for puthex
    string.o(i.puthex) refers to string.o(i.puts) for puts
    string.o(i.puthex) refers to uart.o(i.putchar) for putchar
    string.o(i.puts) refers to uart.o(i.putchar) for putchar
    init.o(i.SystemInit) refers to rt_memcpy_w.o(.text) for __aeabi_memcpy4
==============================================================================

Image Symbol Table

    Local Symbols

    Symbol Name                              Value     Ov Type        Size  Object(Section)

    ../clib/memcpset.s                       0x00000000   Number         0  rt_memclr_w.o ABSOLUTE
    ../clib/memcpset.s                       0x00000000   Number         0  rt_memcpy_w.o ABSOLUTE
    dc.s                                     0x00000000   Number         0  dc.o ABSOLUTE
    exception.c                              0x00000000   Number         0  exception.o ABSOLUTE
    init.c                                   0x00000000   Number         0  init.o ABSOLUTE
    led.c                                    0x00000000   Number         0  led.o ABSOLUTE
    main.c                                   0x00000000   Number         0  main.o ABSOLUTE
    start.s                                  0x00000000   Number         0  start.o ABSOLUTE
    string.c                                 0x00000000   Number         0  string.o ABSOLUTE
    systick.c                                0x00000000   Number         0  systick.o ABSOLUTE
    uart.c                                   0x00000000   Number         0  uart.o ABSOLUTE
    RESET                                    0x08000000   Section       64  start.o(RESET)
    .text                                    0x08000040   Section       72  start.o(.text)
    UsageFault_Handler_asm                   0x0800007b   Thumb Code     6  start.o(.text)
    .text                                    0x08000088   Section      100  rt_memcpy_w.o(.text)
    .text                                    0x080000ec   Section       78  rt_memclr_w.o(.text)
    i.HardFault_Handler                      0x0800013c   Section        0  exception.o(i.HardFault_Handler)
    i.LedCtrl                                0x0800015c   Section        0  led.o(i.LedCtrl)
    i.LedInit                                0x0800017c   Section        0  led.o(i.LedInit)
    i.SVC_Handler                            0x0800019c   Section        0  exception.o(i.SVC_Handler)
    i.SysTickInit                            0x080001b8   Section        0  systick.o(i.SysTickInit)
    i.SysTick_Handler                        0x080001d0   Section        0  systick.o(i.SysTick_Handler)
    i.SystemInit                             0x0800020c   Section        0  init.o(i.SystemInit)
    i.UsageFaultInit                         0x08000254   Section        0  exception.o(i.UsageFaultInit)
    i.UsageFault_Handler                     0x08000264   Section        0  exception.o(i.UsageFault_Handler)
    i.add_val                                0x08000318   Section        0  main.o(i.add_val)
    i.getchar                                0x0800032c   Section        0  uart.o(i.getchar)
    i.memcpy                                 0x08000344   Section        0  string.o(i.memcpy)
    i.memset                                 0x0800035e   Section        0  string.o(i.memset)
    i.mymain                                 0x08000372   Section        0  main.o(i.mymain)
    i.put_s_hex                              0x0800038c   Section        0  string.o(i.put_s_hex)
    i.putchar                                0x080003ac   Section        0  uart.o(i.putchar)
    i.puthex                                 0x080003c4   Section        0  string.o(i.puthex)
    i.puts                                   0x08000408   Section        0  string.o(i.puts)
    i.uart_init                              0x08000420   Section        0  uart.o(i.uart_init)
    .data                                    0x20000000   Section        4  systick.o(.data)
    led_on                                   0x20000000   Data           4  systick.o(.data)

    Global Symbols

    Symbol Name                              Value     Ov Type        Size  Object(Section)

    BuildAttributes$$THM_ISAv4$P$D$K$B$S$PE$A:L22UL41UL21$X:L11$S22US41US21$IEEE1$IW$USESV6$~STKCKD$USESV7$~SHL$OSPACE$ROPI$EBA8$STANDARDLIB$REQ8$PRES8$EABIv2 0x00000000   Number         0  anon$$obj.o ABSOLUTE
    Image$$RW_IRAM1$$ZI$$Length              0x00000000   Number         0  anon$$obj.o ABSOLUTE
    Image$$RW_IRAM1$$Length                  0x00000004   Number         0  anon$$obj.o ABSOLUTE
    Image$$ER_IROM1$$Length                  0x00000470   Number         0  anon$$obj.o ABSOLUTE
    Image$$ER_IROM1$$Base                    0x08000000   Number         0  anon$$obj.o ABSOLUTE
    Load$$ER_IROM1$$Base                     0x08000000   Number         0  anon$$obj.o ABSOLUTE
    __Vectors                                0x08000000   Data           4  start.o(RESET)
    Reset_Handler                            0x08000041   Thumb Code    58  start.o(.text)
    __aeabi_memcpy4                          0x08000089   Thumb Code     0  rt_memcpy_w.o(.text)
    __aeabi_memcpy8                          0x08000089   Thumb Code     0  rt_memcpy_w.o(.text)
    __rt_memcpy_w                            0x08000089   Thumb Code   100  rt_memcpy_w.o(.text)
    _memcpy_lastbytes_aligned                0x080000d1   Thumb Code     0  rt_memcpy_w.o(.text)
    __aeabi_memclr4                          0x080000ed   Thumb Code     0  rt_memclr_w.o(.text)
    __aeabi_memclr8                          0x080000ed   Thumb Code     0  rt_memclr_w.o(.text)
    __rt_memclr_w                            0x080000ed   Thumb Code    78  rt_memclr_w.o(.text)
    _memset_w                                0x080000f1   Thumb Code     0  rt_memclr_w.o(.text)
    HardFault_Handler                        0x0800013d   Thumb Code    10  exception.o(i.HardFault_Handler)
    LedCtrl                                  0x0800015d   Thumb Code    26  led.o(i.LedCtrl)
    LedInit                                  0x0800017d   Thumb Code    22  led.o(i.LedInit)
    SVC_Handler                              0x0800019d   Thumb Code    10  exception.o(i.SVC_Handler)
    SysTickInit                              0x080001b9   Thumb Code    14  systick.o(i.SysTickInit)
    SysTick_Handler                          0x080001d1   Thumb Code    50  systick.o(i.SysTick_Handler)
    SystemInit                               0x0800020d   Thumb Code    40  init.o(i.SystemInit)
    UsageFaultInit                           0x08000255   Thumb Code    12  exception.o(i.UsageFaultInit)
    UsageFault_Handler                       0x08000265   Thumb Code    88  exception.o(i.UsageFault_Handler)
    add_val                                  0x08000319   Thumb Code    20  main.o(i.add_val)
    getchar                                  0x0800032d   Thumb Code    18  uart.o(i.getchar)
    memcpy                                   0x08000345   Thumb Code    26  string.o(i.memcpy)
    memset                                   0x0800035f   Thumb Code    20  string.o(i.memset)
    mymain                                   0x08000373   Thumb Code    24  main.o(i.mymain)
    put_s_hex                                0x0800038d   Thumb Code    26  string.o(i.put_s_hex)
    putchar                                  0x080003ad   Thumb Code    18  uart.o(i.putchar)
    puthex                                   0x080003c5   Thumb Code    62  string.o(i.puthex)
    puts                                     0x08000409   Thumb Code    22  string.o(i.puts)
    uart_init                                0x08000421   Thumb Code    68  uart.o(i.uart_init)
    Load$$RW_IRAM1$$Base                     0x08000470   Number         0  anon$$obj.o ABSOLUTE
    Image$$RW_IRAM1$$Base                    0x20000000   Number         0  anon$$obj.o ABSOLUTE
    Image$$RW_IRAM1$$ZI$$Base                0x20000004   Number         0  anon$$obj.o ABSOLUTE



==============================================================================

Memory Map of the image

  Image entry point : Not specified.

  Load Region LR_IROM1 (Base: 0x08000000, Size: 0x00000474, Max: 0x00080000, ABSOLUTE)

    Execution Region ER_IROM1 (Exec base: 0x08000000, Load base: 0x08000000, Size: 0x00000470, Max: 0xffffffff, ABSOLUTE)

    Exec Addr    Load Addr    Size         Type   Attr      Idx    E Section Name        Object

    0x08000000   0x08000000   0x00000040   Data   RO           27    RESET               start.o
    0x08000040   0x08000040   0x00000048   Code   RO           28    .text               start.o
    0x08000088   0x08000088   0x00000064   Code   RO          182    .text               c_w.l(rt_memcpy_w.o)
    0x080000ec   0x080000ec   0x0000004e   Code   RO          184    .text               c_w.l(rt_memclr_w.o)
    0x0800013a   0x0800013a   0x00000002   PAD
    0x0800013c   0x0800013c   0x00000020   Code   RO          108    i.HardFault_Handler  exception.o
    0x0800015c   0x0800015c   0x00000020   Code   RO          163    i.LedCtrl           led.o
    0x0800017c   0x0800017c   0x00000020   Code   RO          164    i.LedInit           led.o
    0x0800019c   0x0800019c   0x0000001c   Code   RO          109    i.SVC_Handler       exception.o
    0x080001b8   0x080001b8   0x00000018   Code   RO          141    i.SysTickInit       systick.o
    0x080001d0   0x080001d0   0x0000003c   Code   RO          142    i.SysTick_Handler   systick.o
    0x0800020c   0x0800020c   0x00000048   Code   RO           96    i.SystemInit        init.o
    0x08000254   0x08000254   0x00000010   Code   RO          110    i.UsageFaultInit    exception.o
    0x08000264   0x08000264   0x000000b4   Code   RO          111    i.UsageFault_Handler  exception.o
    0x08000318   0x08000318   0x00000014   Code   RO            1    i.add_val           main.o
    0x0800032c   0x0800032c   0x00000018   Code   RO           33    i.getchar           uart.o
    0x08000344   0x08000344   0x0000001a   Code   RO           60    i.memcpy            string.o
    0x0800035e   0x0800035e   0x00000014   Code   RO           61    i.memset            string.o
    0x08000372   0x08000372   0x00000018   Code   RO            2    i.mymain            main.o
    0x0800038a   0x0800038a   0x00000002   PAD
    0x0800038c   0x0800038c   0x00000020   Code   RO           62    i.put_s_hex         string.o
    0x080003ac   0x080003ac   0x00000018   Code   RO           34    i.putchar           uart.o
    0x080003c4   0x080003c4   0x00000044   Code   RO           63    i.puthex            string.o
    0x08000408   0x08000408   0x00000016   Code   RO           64    i.puts              string.o
    0x0800041e   0x0800041e   0x00000002   PAD
    0x08000420   0x08000420   0x00000050   Code   RO           35    i.uart_init         uart.o


    Execution Region RW_IRAM1 (Exec base: 0x20000000, Load base: 0x08000470, Size: 0x00000004, Max: 0xffffffff, ABSOLUTE)

    Exec Addr    Load Addr    Size         Type   Attr      Idx    E Section Name        Object

    0x20000000   0x08000470   0x00000004   Data   RW          143    .data               systick.o


==============================================================================

Image component sizes


      Code (inc. data)   RO Data    RW Data    ZI Data      Debug   Object Name

       256        136          0          0          0       9452   exception.o
        72         32          0          0          0        397   init.o
        64         16          0          0          0        828   led.o
        44          0          0          0          0       2407   main.o
        72         12         64          0          0        392   start.o
       168         12          0          0          0       2566   string.o
        84         20          0          4          0       1556   systick.o
       128         24          0          0          0       1772   uart.o

    ----------------------------------------------------------------------
       892        252         64          4          0      19370   Object Totals
         0          0          0          0          0          0   (incl. Generated)
         4          0          0          0          0          0   (incl. Padding)

    ----------------------------------------------------------------------

      Code (inc. data)   RO Data    RW Data    ZI Data      Debug   Library Member Name

        78          0          0          0          0         80   rt_memclr_w.o
       100          0          0          0          0         80   rt_memcpy_w.o

    ----------------------------------------------------------------------
       180          0          0          0          0        160   Library Totals
         2          0          0          0          0          0   (incl. Padding)

    ----------------------------------------------------------------------

      Code (inc. data)   RO Data    RW Data    ZI Data      Debug   Library Name

       178          0          0          0          0        160   c_w.l

    ----------------------------------------------------------------------
       180          0          0          0          0        160   Library Totals

    ----------------------------------------------------------------------

==============================================================================


      Code (inc. data)   RO Data    RW Data    ZI Data      Debug   

      1072        252         64          4          0      18594   Grand Totals
      1072        252         64          4          0      18594   ELF Image Totals
      1072        252         64          4          0          0   ROM Totals

==============================================================================

    Total RO  Size (Code + RO Data)                 1136 (   1.11kB)
    Total RW  Size (RW Data + ZI Data)                 4 (   0.00kB)
    Total ROM Size (Code + RO Data + RW Data)       1140 (   1.11kB)

==============================================================================

