


ARM Macro Assembler    Page 1 


    1 00000000         
    2 00000000                 PRESERVE8
    3 00000000                 THUMB
    4 00000000         
    5 00000000         
    6 00000000         ; Vector Table Mapped to Address 0 at Reset
    7 00000000                 AREA             RESET, DATA, READONLY
    8 00000000                 EXPORT           __Vectors
    9 00000000                 IMPORT           HardFault_Handler
   10 00000000                 IMPORT           UsageFault_Handler
   11 00000000                 IMPORT           SVC_Handler
   12 00000000                 IMPORT           SysTick_Handler
   13 00000000         
   14 00000000 00000000 
                       __Vectors
                               DCD              0
   15 00000004 00000000        DCD              Reset_Handler ; Reset Handler
   16 00000008 00000000        DCD              0           ; NMI Handler
   17 0000000C 00000000        DCD              HardFault_Handler ; Hard Fault 
                                                            Handler
   18 00000010 00000000        DCD              0           ; MPU Fault Handler
                                                            
   19 00000014 00000000        DCD              0           ; Bus Fault Handler
                                                            
   20 00000018 00000000        DCD              UsageFault_Handler_asm ; Usage 
                                                            Fault Handler
   21 0000001C 00000000        DCD              0           ; Reserved
   22 00000020 00000000        DCD              0           ; Reserved
   23 00000024 00000000        DCD              0           ; Reserved
   24 00000028 00000000        DCD              0           ; Reserved
   25 0000002C 00000000        DCD              SVC_Handler ; SVCall Handler
   26 00000030 00000000        DCD              0           ; Debug Monitor Han
                                                            dler
   27 00000034 00000000        DCD              0           ; Reserved
   28 00000038 00000000        DCD              0           ; PendSV Handler
   29 0000003C 00000000        DCD              SysTick_Handler 
                                                            ; SysTick Handler
   30 00000040                 AREA             |.text|, CODE, READONLY
   31 00000000         
   32 00000000         ; Reset handler
   33 00000000         Reset_Handler
                               PROC
   34 00000000                 EXPORT           Reset_Handler             [WEAK
]
   35 00000000                 IMPORT           mymain
   36 00000000         
   37 00000000                 IMPORT           SystemInit
   38 00000000                 IMPORT           uart_init
   39 00000000                 IMPORT           UsageFaultInit
   40 00000000                 IMPORT           SysTickInit
   41 00000000                 IMPORT           LedInit
   42 00000000         
   43 00000000 F8DF D03C       LDR              SP, =(0x20000000+0x10000)
   44 00000004         
   45 00000004 F7FF FFFE       BL               SystemInit
   46 00000008         
   47 00000008 F7FF FFFE       BL               uart_init
   48 0000000C         
   49 0000000C F7FF FFFE       BL               UsageFaultInit



ARM Macro Assembler    Page 2 


   50 00000010         
   51 00000010 F04F 0000       LDR              R0, =0
   52 00000014 F04F 3111       LDR              R1, =0x11111111
   53 00000018 F04F 3222       LDR              R2, =0x22222222
   54 0000001C F04F 3333       LDR              R3, =0x33333333
   55 00000020 F04F 3C44       LDR              R12, =0x44444444
   56 00000024 F04F 3E55       LDR              LR, =0x55555555
   57 00000028         
   58 00000028 FFFFFFFF        DCD              0xffffffff
   59 0000002C         
   60 0000002C DF01            SVC              #1
   61 0000002E         
   62 0000002E F7FF FFFE       BL               SysTickInit
   63 00000032         
   64 00000032 F7FF FFFE       BL               LedInit
   65 00000036         
   66 00000036         ;BL mymain
   67 00000036 4803            LDR              R0, =mymain
   68 00000038 4780            BLX              R0
   69 0000003A         
   70 0000003A                 ENDP
   71 0000003A         
   72 0000003A         UsageFault_Handler_asm
                               PROC
   73 0000003A 4668            MOV              R0, SP
   74 0000003C F7FF BFFE       B                UsageFault_Handler
   75 00000040                 ENDP
   76 00000040         
   77 00000040                 END
              20010000 
              00000000 
Command Line: --debug --xref --diag_suppress=9931 --cpu=Cortex-M3 --apcs=interw
ork --depend=.\objects\start.d -o.\objects\start.o -I.\RTE\_led_c -IC:\Users\we
idongshan\AppData\Local\Arm\Packs\Keil\STM32F1xx_DFP\2.3.0\Device\Include -IC:\
Keil_v5\ARM\CMSIS\Include --predefine="__UVISION_VERSION SETA 527" --predefine=
"STM32F10X_HD SETA 1" --list=.\listings\start.lst start.s



ARM Macro Assembler    Page 1 Alphabetic symbol ordering
Relocatable symbols

RESET 00000000

Symbol: RESET
   Definitions
      At line 7 in file start.s
   Uses
      None
Comment: RESET unused
__Vectors 00000000

Symbol: __Vectors
   Definitions
      At line 14 in file start.s
   Uses
      At line 8 in file start.s
Comment: __Vectors used once
2 symbols



ARM Macro Assembler    Page 1 Alphabetic symbol ordering
Relocatable symbols

.text 00000000

Symbol: .text
   Definitions
      At line 30 in file start.s
   Uses
      None
Comment: .text unused
Reset_Handler 00000000

Symbol: Reset_Handler
   Definitions
      At line 33 in file start.s
   Uses
      At line 15 in file start.s
      At line 34 in file start.s

UsageFault_Handler_asm 0000003A

Symbol: UsageFault_Handler_asm
   Definitions
      At line 72 in file start.s
   Uses
      At line 20 in file start.s
Comment: UsageFault_Handler_asm used once
3 symbols



ARM Macro Assembler    Page 1 Alphabetic symbol ordering
External symbols

HardFault_Handler 00000000

Symbol: HardFault_Handler
   Definitions
      At line 9 in file start.s
   Uses
      At line 17 in file start.s
Comment: HardFault_Handler used once
LedInit 00000000

Symbol: LedInit
   Definitions
      At line 41 in file start.s
   Uses
      At line 64 in file start.s
Comment: LedInit used once
SVC_Handler 00000000

Symbol: SVC_Handler
   Definitions
      At line 11 in file start.s
   Uses
      At line 25 in file start.s
Comment: SVC_Handler used once
SysTickInit 00000000

Symbol: SysTickInit
   Definitions
      At line 40 in file start.s
   Uses
      At line 62 in file start.s
Comment: SysTickInit used once
SysTick_Handler 00000000

Symbol: SysTick_Handler
   Definitions
      At line 12 in file start.s
   Uses
      At line 29 in file start.s
Comment: SysTick_Handler used once
SystemInit 00000000

Symbol: SystemInit
   Definitions
      At line 37 in file start.s
   Uses
      At line 45 in file start.s
Comment: SystemInit used once
UsageFaultInit 00000000

Symbol: UsageFaultInit
   Definitions
      At line 39 in file start.s
   Uses
      At line 49 in file start.s
Comment: UsageFaultInit used once
UsageFault_Handler 00000000

Symbol: UsageFault_Handler



ARM Macro Assembler    Page 2 Alphabetic symbol ordering
External symbols

   Definitions
      At line 10 in file start.s
   Uses
      At line 74 in file start.s
Comment: UsageFault_Handler used once
mymain 00000000

Symbol: mymain
   Definitions
      At line 35 in file start.s
   Uses
      At line 67 in file start.s
Comment: mymain used once
uart_init 00000000

Symbol: uart_init
   Definitions
      At line 38 in file start.s
   Uses
      At line 47 in file start.s
Comment: uart_init used once
10 symbols
349 symbols in table
