:020000040800F2
:100000000000000041000008000000003D01000861
:1000100000000000000000007B000008000000005D
:100020000000000000000000000000009D0100082A
:10003000000000000000000000000000D1010008E6
:10004000DFF83CD000F0E2F800F01AFA00F002F914
:100050004FF000004FF011314FF022324FF03333A8
:100060004FF0443C4FF0553EFFFFFFFF01DF00F033
:10007000A3F800F083F803488047684600F0F2B820
:10008000000001206103000810B5203AC0F00B8089
:10009000B1E81850203AA0E81850B1E81850A0E88C
:1000A0001850BFF4F5AF5FEA027C24BFB1E81850E6
:1000B000A0E8185044BF18C918C0BDE810405FEA56
:1000C000827C24BF51F8043B40F8043B08BF7047D2
:1000D000D20728BF31F8023B48BF11F8012B28BFD7
:1000E00020F8023B48BF00F8012B70474FF0000298
:1000F00000B5134694469646203922BFA0E80C501E
:10010000A0E80C50B1F12001BFF4F7AF090728BFF8
:10011000A0E80C5048BF0CC05DF804EB890028BF74
:1001200040F8042B08BF704748BF20F8022B11F09D
:10013000804F18BF00F8012B7047000002A000F0AC
:100140005BF900BFFEE70000486172644661756CB0
:10015000745F48616E646C65720A0D000146064862
:1001600021B1026822F00102026003E0026842F05D
:1001700001020260704700000C0C01400548016854
:1001800041F0080101600448016841F0010101608B
:100190007047000018100240000C014010B502A08A
:1001A00000F02AF910BD00005356435F48616E64A9
:1001B0006C65720A0D0000000348044981604160CB
:1001C000072101607047000010E000E000127A0093
:1001D00010B50C4C0C48006818B10020FFF7BEFFAA
:1001E00002E00120FFF7BAFF0748006808B90120C4
:1001F00000E0002004490860606840F00070606022
:1002000010BD000000ED00E00000002010B509481E
:100210000949884202D0094AFFF736FF08480949D0
:10022000884202D0084AFFF72FFF08490848FFF725
:100230005DFF10BD0000000800000008E804000099
:1002400000000020E8040008040000000000000096
:10025000040000200248416A41F480214162704755
:1002600000ED00E070B50446144D15A000F0C4F890
:1002700019A0216800F082F819A0616800F07EF8EA
:1002800019A0A16800F07AF819A0E16800F076F8EA
:1002900019A0216900F072F819A0616900F06EF8E8
:1002A00019A0A16900F06AF819A0E16900F066F8E8
:1002B000A86AA862A069001DA06170BD00ED00E001
:1002C00055736167654661756C745F48616E646CF7
:1002D00065720A0D00000000523020203D20000011
:1002E000523120203D200000523220203D200000CD
:1002F000523320203D200000523132203D200000AA
:100300004C5220203D200000504320203D20000082
:10031000785053523D200000044900BF086800F0A7
:1003200020000028FAD048687047000000380140DB
:1003300070B503460C4603E025781D70641C5B1CF9
:10034000151EA2F10102F7D170BD30B5034601E0E0
:1003500019705B1C141EA2F10102F9D130BD00001E
:1003600002E002A000F054F8FBE700007777772E58
:1003700031303061736B2E6E6574000070B50546C8
:100380000C46284600F038F8204600F013F802A08A
:1003900000F032F870BD00000D0A0000044900BFF3
:1003A0000A6802F08002002AFAD048607047000014
:1003B0000038014070B506460EA000F01DF8072574
:1003C00014E0A80026FA00F000F00F04002C07DB70
:1003D000092C05DC04F13001C8B2FFF7DFFF04E0AF
:1003E00004F13701C8B2FFF7D9FF6D1E002DE8DA1E
:1003F00070BD00003078000010B5044603E020789E
:10040000FFF7CCFF641C20780028F8D110BD000055
:100410001FB504460B4A07CA01AB07C301A8FFF783
:10042000EBFF0DE00020009003E00099605CFFF717
:10043000B5FF0098205C0028F7D10098401C009080
:10044000F0E70000D00400081FB504460B4A07CAB5
:1004500001AB07C301A8FFF7CFFF0DE0002000901C
:1004600003E00099605CFFF799FF0098205C00288A
:10047000F7D10098401C0090F0E70000DC04000871
:1004800010491148026844F204031A4302600F48FD
:10049000026822F0F0020260026842F090020260FC
:1004A000026822F470620260026842F480620260B4
:1004B00045228A6042F20C02CA600A6922F4405264
:1004C0000A617047003801401810024004080140DA
:1004D0007461736B20610000000000007461736B35
:0C04E0002062000000000000000000008E
:0400000500000000F7
:00000001FF
