Component: ARM Compiler 5.06 update 6 (build 750) Tool: armlink [4d35ed]

==============================================================================

Section Cross References

    stm32f10x.o(RESET) refers to stm32f10x.o(STACK) for __initial_sp
    stm32f10x.o(RESET) refers to stm32f10x.o(.text) for Reset_Handler
    stm32f10x.o(RESET) refers to port.o(.emb_text) for vPortSVCHandler
    stm32f10x.o(RESET) refers to port.o(.text) for xPortSysTickHandler
    stm32f10x.o(RESET) refers to timertest.o(.text) for vTimer2IntHandler
    stm32f10x.o(RESET) refers to serial.o(.text) for vUARTInterruptHandler
    stm32f10x.o(.text) refers to entry.o(.ARM.Collect$$$$00000000) for __main
    stm32f10x_usart.o(.text) refers to stm32f10x_rcc.o(.text) for RCC_APB2PeriphResetCmd
    stm32f10x_gpio.o(.text) refers to stm32f10x_rcc.o(.text) for RCC_APB2PeriphResetCmd
    stm32f10x_nvic.o(.text) refers to cortexm3_macro_rvds.o(.text) for __SETPRIMASK
    stm32f10x_rcc.o(.text) refers to stm32f10x_rcc.o(.constdata) for APBAHBPrescTable
    stm32f10x_spi.o(.text) refers to stm32f10x_rcc.o(.text) for RCC_APB2PeriphResetCmd
    stm32f10x_tim.o(.text) refers to stm32f10x_rcc.o(.text) for RCC_APB1PeriphResetCmd
    stm32f10x_tim.o(.text) refers to stm32f10x_tim.o(.constdata) for Tab_OCModeMask
    serial.o(.text) refers to stm32f10x_rcc.o(.text) for RCC_APB2PeriphClockCmd
    serial.o(.text) refers to stm32f10x_gpio.o(.text) for GPIO_Init
    serial.o(.text) refers to stm32f10x_usart.o(.text) for USART_Init
    timertest.o(.text) refers to stm32f10x_rcc.o(.text) for RCC_APB1PeriphClockCmd
==============================================================================

Removing Unused input sections from the image.

    Removing stm32f10x.o(HEAP), (0 bytes).
    Removing stm32f10x_spi.o(.text), (532 bytes).
    Removing dadd.o(.text), (334 bytes).
    Removing dmul.o(.text), (228 bytes).
    Removing ddiv.o(.text), (222 bytes).
    Removing dfixul.o(.text), (48 bytes).
    Removing cdrcmple.o(.text), (48 bytes).
    Removing depilogue.o(.text), (186 bytes).

8 unused section(s) (total 1598 bytes) removed from the image.

==============================================================================

Image Symbol Table

    Local Symbols

    Symbol Name                              Value     Ov Type        Size  Object(Section)

    ../clib/microlib/division.c              0x00000000   Number         0  uldiv.o ABSOLUTE
    ../clib/microlib/division.c              0x00000000   Number         0  uidiv.o ABSOLUTE
    ../clib/microlib/init/entry.s            0x00000000   Number         0  entry9b.o ABSOLUTE
    ../clib/microlib/init/entry.s            0x00000000   Number         0  entry10b.o ABSOLUTE
    ../clib/microlib/init/entry.s            0x00000000   Number         0  entry11a.o ABSOLUTE
    ../clib/microlib/init/entry.s            0x00000000   Number         0  entry11b.o ABSOLUTE
    ../clib/microlib/init/entry.s            0x00000000   Number         0  entry10a.o ABSOLUTE
    ../clib/microlib/init/entry.s            0x00000000   Number         0  entry2.o ABSOLUTE
    ../clib/microlib/init/entry.s            0x00000000   Number         0  entry5.o ABSOLUTE
    ../clib/microlib/init/entry.s            0x00000000   Number         0  entry7a.o ABSOLUTE
    ../clib/microlib/init/entry.s            0x00000000   Number         0  entry7b.o ABSOLUTE
    ../clib/microlib/init/entry.s            0x00000000   Number         0  entry.o ABSOLUTE
    ../clib/microlib/init/entry.s            0x00000000   Number         0  entry8a.o ABSOLUTE
    ../clib/microlib/init/entry.s            0x00000000   Number         0  entry8b.o ABSOLUTE
    ../clib/microlib/init/entry.s            0x00000000   Number         0  entry9a.o ABSOLUTE
    ../clib/microlib/longlong.c              0x00000000   Number         0  llsshr.o ABSOLUTE
    ../clib/microlib/longlong.c              0x00000000   Number         0  llushr.o ABSOLUTE
    ../clib/microlib/longlong.c              0x00000000   Number         0  llshl.o ABSOLUTE
    ../clib/microlib/printf/printf.c         0x00000000   Number         0  printf3.o ABSOLUTE
    ../clib/microlib/printf/printf.c         0x00000000   Number         0  printfb.o ABSOLUTE
    ../clib/microlib/printf/printf.c         0x00000000   Number         0  printf2.o ABSOLUTE
    ../clib/microlib/printf/printf.c         0x00000000   Number         0  printf1.o ABSOLUTE
    ../clib/microlib/printf/printf.c         0x00000000   Number         0  printfa.o ABSOLUTE
    ../clib/microlib/printf/printf.c         0x00000000   Number         0  printf0.o ABSOLUTE
    ../clib/microlib/printf/printf.c         0x00000000   Number         0  printf8.o ABSOLUTE
    ../clib/microlib/printf/printf.c         0x00000000   Number         0  printf7.o ABSOLUTE
    ../clib/microlib/printf/printf.c         0x00000000   Number         0  printf6.o ABSOLUTE
    ../clib/microlib/printf/printf.c         0x00000000   Number         0  printf5.o ABSOLUTE
    ../clib/microlib/printf/printf.c         0x00000000   Number         0  printf4.o ABSOLUTE
    ../clib/microlib/printf/stubs.s          0x00000000   Number         0  stubs.o ABSOLUTE
    ../clib/microlib/string/memcpy.c         0x00000000   Number         0  memcpyb.o ABSOLUTE
    ../clib/microlib/string/memcpy.c         0x00000000   Number         0  memcpya.o ABSOLUTE
    ../clib/microlib/stubs.s                 0x00000000   Number         0  useno.o ABSOLUTE
    ../clib/microlib/stubs.s                 0x00000000   Number         0  iusefp.o ABSOLUTE
    ../fplib/microlib/fpadd.c                0x00000000   Number         0  dadd.o ABSOLUTE
    ../fplib/microlib/fpdiv.c                0x00000000   Number         0  ddiv.o ABSOLUTE
    ../fplib/microlib/fpepilogue.c           0x00000000   Number         0  depilogue.o ABSOLUTE
    ../fplib/microlib/fpfix.c                0x00000000   Number         0  dfixul.o ABSOLUTE
    ../fplib/microlib/fpmul.c                0x00000000   Number         0  dmul.o ABSOLUTE
    ..\..\Source\list.c                      0x00000000   Number         0  list.o ABSOLUTE
    ..\..\Source\portable\MemMang\heap_2.c   0x00000000   Number         0  heap_2.o ABSOLUTE
    ..\..\Source\portable\RVDS\ARM_CM3\port.c 0x00000000   Number         0  port.o ABSOLUTE
    ..\..\Source\queue.c                     0x00000000   Number         0  queue.o ABSOLUTE
    ..\..\Source\tasks.c                     0x00000000   Number         0  tasks.o ABSOLUTE
    ..\..\Source\timers.c                    0x00000000   Number         0  timers.o ABSOLUTE
    ..\Common\drivers\ST\STM32F10xFWLib\src\cortexm3_macro_rvds.s 0x00000000   Number         0  cortexm3_macro_rvds.o ABSOLUTE
    ..\\..\\Source\\portable\\RVDS\\ARM_CM3\\port.c 0x00000000   Number         0  port.o ABSOLUTE
    STM32F10x.s                              0x00000000   Number         0  stm32f10x.o ABSOLUTE
    STM32F10xFWLib\src\stm32f10x_gpio.c      0x00000000   Number         0  stm32f10x_gpio.o ABSOLUTE
    STM32F10xFWLib\src\stm32f10x_lib.c       0x00000000   Number         0  stm32f10x_lib.o ABSOLUTE
    STM32F10xFWLib\src\stm32f10x_nvic.c      0x00000000   Number         0  stm32f10x_nvic.o ABSOLUTE
    STM32F10xFWLib\src\stm32f10x_rcc.c       0x00000000   Number         0  stm32f10x_rcc.o ABSOLUTE
    STM32F10xFWLib\src\stm32f10x_spi.c       0x00000000   Number         0  stm32f10x_spi.o ABSOLUTE
    STM32F10xFWLib\src\stm32f10x_systick.c   0x00000000   Number         0  stm32f10x_systick.o ABSOLUTE
    STM32F10xFWLib\src\stm32f10x_tim.c       0x00000000   Number         0  stm32f10x_tim.o ABSOLUTE
    STM32F10xFWLib\src\stm32f10x_usart.c     0x00000000   Number         0  stm32f10x_usart.o ABSOLUTE
    cdrcmple.s                               0x00000000   Number         0  cdrcmple.o ABSOLUTE
    dc.s                                     0x00000000   Number         0  dc.o ABSOLUTE
    handlers.s                               0x00000000   Number         0  handlers.o ABSOLUTE
    init.s                                   0x00000000   Number         0  init.o ABSOLUTE
    main.c                                   0x00000000   Number         0  main.o ABSOLUTE
    serial\serial.c                          0x00000000   Number         0  serial.o ABSOLUTE
    timertest.c                              0x00000000   Number         0  timertest.o ABSOLUTE
    RESET                                    0x08000000   Section      236  stm32f10x.o(RESET)
    .ARM.Collect$$$$00000000                 0x080000ec   Section        0  entry.o(.ARM.Collect$$$$00000000)
    .ARM.Collect$$$$00000001                 0x080000ec   Section        4  entry2.o(.ARM.Collect$$$$00000001)
    .ARM.Collect$$$$00000004                 0x080000f0   Section        4  entry5.o(.ARM.Collect$$$$00000004)
    .ARM.Collect$$$$00000008                 0x080000f4   Section        0  entry7b.o(.ARM.Collect$$$$00000008)
    .ARM.Collect$$$$0000000A                 0x080000f4   Section        0  entry8b.o(.ARM.Collect$$$$0000000A)
    .ARM.Collect$$$$0000000B                 0x080000f4   Section        8  entry9a.o(.ARM.Collect$$$$0000000B)
    .ARM.Collect$$$$0000000D                 0x080000fc   Section        0  entry10a.o(.ARM.Collect$$$$0000000D)
    .ARM.Collect$$$$0000000F                 0x080000fc   Section        0  entry11a.o(.ARM.Collect$$$$0000000F)
    .ARM.Collect$$$$00002712                 0x080000fc   Section        4  entry2.o(.ARM.Collect$$$$00002712)
    __lit__00000000                          0x080000fc   Data           4  entry2.o(.ARM.Collect$$$$00002712)
    .emb_text                                0x08000100   Section      150  port.o(.emb_text)
    .text                                    0x08000198   Section       28  stm32f10x.o(.text)
    .text                                    0x080001b4   Section      110  cortexm3_macro_rvds.o(.text)
    .text                                    0x08000224   Section        0  stm32f10x_usart.o(.text)
    .text                                    0x08000548   Section        0  stm32f10x_gpio.o(.text)
    .text                                    0x08000828   Section        0  stm32f10x_nvic.o(.text)
    .text                                    0x08000c08   Section        0  stm32f10x_rcc.o(.text)
    .text                                    0x08000f84   Section        0  stm32f10x_systick.o(.text)
    .text                                    0x08001048   Section        0  stm32f10x_tim.o(.text)
    TI1_Config                               0x080011a3   Thumb Code    56  stm32f10x_tim.o(.text)
    TI2_Config                               0x080011f5   Thumb Code    80  stm32f10x_tim.o(.text)
    PWMI_Config                              0x08001245   Thumb Code   124  stm32f10x_tim.o(.text)
    TI4_Config                               0x080012db   Thumb Code    82  stm32f10x_tim.o(.text)
    TI3_Config                               0x0800133f   Thumb Code    66  stm32f10x_tim.o(.text)
    ETR_Config                               0x08001505   Thumb Code    26  stm32f10x_tim.o(.text)
    .text                                    0x080018ac   Section        0  serial.o(.text)
    .text                                    0x0800198c   Section        0  timertest.o(.text)
    .text                                    0x08001a84   Section        0  main.o(.text)
    vAutoLoadTimerFunc                       0x08001a85   Thumb Code    40  main.o(.text)
    vONEShotTimerFunc                        0x08001aad   Thumb Code    40  main.o(.text)
    prvSetupHardware                         0x08001ad5   Thumb Code   146  main.o(.text)
    .text                                    0x08001c30   Section        0  tasks.o(.text)
    prvInitialiseTaskLists                   0x08001c31   Thumb Code    70  tasks.o(.text)
    prvAddNewTaskToReadyList                 0x08001c77   Thumb Code   150  tasks.o(.text)
    prvInitialiseNewTask                     0x08001d0d   Thumb Code   144  tasks.o(.text)
    prvResetNextTaskUnblockTime              0x08001dfd   Thumb Code    40  tasks.o(.text)
    prvDeleteTCB                             0x08001e25   Thumb Code    18  tasks.o(.text)
    prvAddCurrentTaskToDelayedList           0x080020e5   Thumb Code   124  tasks.o(.text)
    prvTaskIsTaskSuspended                   0x08002443   Thumb Code   118  tasks.o(.text)
    prvCheckTasksWaitingTermination          0x080025a9   Thumb Code    60  tasks.o(.text)
    prvIdleTask                              0x080025e5   Thumb Code    32  tasks.o(.text)
    .text                                    0x08002f24   Section        0  list.o(.text)
    .text                                    0x08002fb8   Section        0  queue.o(.text)
    prvInitialiseNewQueue                    0x08003033   Thumb Code    38  queue.o(.text)
    prvUnlockQueue                           0x0800308d   Thumb Code   126  queue.o(.text)
    prvIsQueueFull                           0x0800310b   Thumb Code    30  queue.o(.text)
    prvCopyDataToQueue                       0x08003129   Thumb Code   126  queue.o(.text)
    prvInitialiseMutex                       0x080032bb   Thumb Code    30  queue.o(.text)
    prvIsQueueEmpty                          0x0800341b   Thumb Code    26  queue.o(.text)
    prvCopyDataFromQueue                     0x08003435   Thumb Code    42  queue.o(.text)
    prvGetDisinheritPriorityAfterTimeout     0x0800355f   Thumb Code    20  queue.o(.text)
    .text                                    0x08003928   Section        0  port.o(.text)
    prvTaskExitError                         0x08003929   Thumb Code    22  port.o(.text)
    .text                                    0x08003a18   Section        0  heap_2.o(.text)
    prvHeapInit                              0x08003a19   Thumb Code    42  heap_2.o(.text)
    .text                                    0x08003b54   Section        0  timers.o(.text)
    prvInsertTimerInActiveList               0x08003b55   Thumb Code    80  timers.o(.text)
    prvSwitchTimerLists                      0x08003c0b   Thumb Code   126  timers.o(.text)
    prvSampleTimeNow                         0x08003c89   Thumb Code    40  timers.o(.text)
    prvProcessReceivedCommands               0x08003cb1   Thumb Code   246  timers.o(.text)
    prvProcessExpiredTimer                   0x08003da7   Thumb Code    86  timers.o(.text)
    prvProcessTimerOrBlockTask               0x08003dfd   Thumb Code   102  timers.o(.text)
    prvGetNextExpireTime                     0x08003e63   Thumb Code    36  timers.o(.text)
    prvTimerTask                             0x08003e87   Thumb Code    26  timers.o(.text)
    prvCheckForValidListAndQueue             0x08003ea1   Thumb Code    56  timers.o(.text)
    prvInitialiseNewTimer                    0x08003f01   Thumb Code    58  timers.o(.text)
    .text                                    0x08004058   Section        0  memcpya.o(.text)
    .text                                    0x0800407c   Section        0  uidiv.o(.text)
    .text                                    0x080040a8   Section       36  init.o(.text)
    i.__0printf$1                            0x080040cc   Section        0  printf1.o(i.__0printf$1)
    i.__scatterload_copy                     0x080040ec   Section       14  handlers.o(i.__scatterload_copy)
    i.__scatterload_null                     0x080040fa   Section        2  handlers.o(i.__scatterload_null)
    i.__scatterload_zeroinit                 0x080040fc   Section       14  handlers.o(i.__scatterload_zeroinit)
    i._printf_core                           0x0800410c   Section        0  printf1.o(i._printf_core)
    _printf_core                             0x0800410d   Thumb Code   336  printf1.o(i._printf_core)
    .constdata                               0x08004260   Section       20  stm32f10x_rcc.o(.constdata)
    APBAHBPrescTable                         0x08004260   Data          16  stm32f10x_rcc.o(.constdata)
    ADCPrescTable                            0x08004270   Data           4  stm32f10x_rcc.o(.constdata)
    .constdata                               0x08004274   Section       16  stm32f10x_tim.o(.constdata)
    Tab_OCModeMask                           0x08004274   Data           8  stm32f10x_tim.o(.constdata)
    Tab_PolarityMask                         0x0800427c   Data           8  stm32f10x_tim.o(.constdata)
    .data                                    0x20000000   Section        8  serial.o(.data)
    .data                                    0x20000008   Section        8  timertest.o(.data)
    usLastCount                              0x2000000a   Data           2  timertest.o(.data)
    usSettleCount                            0x2000000c   Data           2  timertest.o(.data)
    usMaxDifference                          0x2000000e   Data           2  timertest.o(.data)
    .data                                    0x20000010   Section       12  main.o(.data)
    flagONEShotTimerRun                      0x20000010   Data           1  main.o(.data)
    flagAutoLoadTimerRun                     0x20000011   Data           1  main.o(.data)
    cnt                                      0x20000014   Data           4  main.o(.data)
    cnt                                      0x20000018   Data           4  main.o(.data)
    .data                                    0x2000001c   Section       64  tasks.o(.data)
    pxDelayedTaskList                        0x20000020   Data           4  tasks.o(.data)
    pxOverflowDelayedTaskList                0x20000024   Data           4  tasks.o(.data)
    uxDeletedTasksWaitingCleanUp             0x20000028   Data           4  tasks.o(.data)
    uxCurrentNumberOfTasks                   0x2000002c   Data           4  tasks.o(.data)
    xTickCount                               0x20000030   Data           4  tasks.o(.data)
    uxTopReadyPriority                       0x20000034   Data           4  tasks.o(.data)
    xSchedulerRunning                        0x20000038   Data           4  tasks.o(.data)
    xPendedTicks                             0x2000003c   Data           4  tasks.o(.data)
    xYieldPending                            0x20000040   Data           4  tasks.o(.data)
    xNumOfOverflows                          0x20000044   Data           4  tasks.o(.data)
    uxTaskNumber                             0x20000048   Data           4  tasks.o(.data)
    xNextTaskUnblockTime                     0x2000004c   Data           4  tasks.o(.data)
    xIdleTaskHandle                          0x20000050   Data           4  tasks.o(.data)
    uxSchedulerSuspended                     0x20000058   Data           4  tasks.o(.data)
    .data                                    0x2000005c   Section        4  port.o(.data)
    uxCriticalNesting                        0x2000005c   Data           4  port.o(.data)
    .data                                    0x20000060   Section       24  heap_2.o(.data)
    xStart                                   0x20000060   Data           8  heap_2.o(.data)
    xEnd                                     0x20000068   Data           8  heap_2.o(.data)
    xFreeBytesRemaining                      0x20000070   Data           4  heap_2.o(.data)
    xHeapHasBeenInitialised                  0x20000074   Data           4  heap_2.o(.data)
    .data                                    0x20000078   Section       20  timers.o(.data)
    pxCurrentTimerList                       0x20000078   Data           4  timers.o(.data)
    pxOverflowTimerList                      0x2000007c   Data           4  timers.o(.data)
    xTimerQueue                              0x20000080   Data           4  timers.o(.data)
    xTimerTaskHandle                         0x20000084   Data           4  timers.o(.data)
    xLastTime                                0x20000088   Data           4  timers.o(.data)
    .bss                                     0x2000008c   Section      200  tasks.o(.bss)
    pxReadyTasksLists                        0x2000008c   Data         100  tasks.o(.bss)
    xDelayedTaskList1                        0x200000f0   Data          20  tasks.o(.bss)
    xDelayedTaskList2                        0x20000104   Data          20  tasks.o(.bss)
    xPendingReadyList                        0x20000118   Data          20  tasks.o(.bss)
    xTasksWaitingTermination                 0x2000012c   Data          20  tasks.o(.bss)
    xSuspendedTaskList                       0x20000140   Data          20  tasks.o(.bss)
    .bss                                     0x20000154   Section    17408  heap_2.o(.bss)
    ucHeap                                   0x20000154   Data       17408  heap_2.o(.bss)
    .bss                                     0x20004554   Section       40  timers.o(.bss)
    xActiveTimerList1                        0x20004554   Data          20  timers.o(.bss)
    xActiveTimerList2                        0x20004568   Data          20  timers.o(.bss)
    STACK                                    0x20004580   Section      512  stm32f10x.o(STACK)

    Global Symbols

    Symbol Name                              Value     Ov Type        Size  Object(Section)

    BuildAttributes$$THM_ISAv4$P$D$K$B$S$PE$A:L22UL41UL21$X:L11$S22US41US21$IEEE1$IW$USESV6$~STKCKD$USESV7$~SHL$OSPACE$ROPI$EBA8$MICROLIB$REQ8$PRES8$EABIv2 0x00000000   Number         0  anon$$obj.o ABSOLUTE
    __ARM_use_no_argv                        0x00000000   Number         0  main.o ABSOLUTE
    __use_no_errno                           0x00000000   Number         0  useno.o ABSOLUTE
    __use_no_exception_handling              0x00000000   Number         0  useno.o ABSOLUTE
    __use_no_fp                              0x00000000   Number         0  useno.o ABSOLUTE
    __use_no_heap                            0x00000000   Number         0  useno.o ABSOLUTE
    __use_no_heap_region                     0x00000000   Number         0  useno.o ABSOLUTE
    __use_no_semihosting                     0x00000000   Number         0  useno.o ABSOLUTE
    __use_no_semihosting_swi                 0x00000000   Number         0  useno.o ABSOLUTE
    __use_no_signal_handling                 0x00000000   Number         0  useno.o ABSOLUTE
    _printf_a                                0x00000000   Number         0  stubs.o ABSOLUTE
    _printf_c                                0x00000000   Number         0  stubs.o ABSOLUTE
    _printf_charcount                        0x00000000   Number         0  stubs.o ABSOLUTE
    _printf_d                                0x00000000   Number         0  stubs.o ABSOLUTE
    _printf_e                                0x00000000   Number         0  stubs.o ABSOLUTE
    _printf_f                                0x00000000   Number         0  stubs.o ABSOLUTE
    _printf_flags                            0x00000000   Number         0  stubs.o ABSOLUTE
    _printf_fp_dec                           0x00000000   Number         0  stubs.o ABSOLUTE
    _printf_fp_hex                           0x00000000   Number         0  stubs.o ABSOLUTE
    _printf_g                                0x00000000   Number         0  stubs.o ABSOLUTE
    _printf_i                                0x00000000   Number         0  stubs.o ABSOLUTE
    _printf_int_dec                          0x00000000   Number         0  stubs.o ABSOLUTE
    _printf_l                                0x00000000   Number         0  stubs.o ABSOLUTE
    _printf_lc                               0x00000000   Number         0  stubs.o ABSOLUTE
    _printf_ll                               0x00000000   Number         0  stubs.o ABSOLUTE
    _printf_lld                              0x00000000   Number         0  stubs.o ABSOLUTE
    _printf_lli                              0x00000000   Number         0  stubs.o ABSOLUTE
    _printf_llo                              0x00000000   Number         0  stubs.o ABSOLUTE
    _printf_llu                              0x00000000   Number         0  stubs.o ABSOLUTE
    _printf_llx                              0x00000000   Number         0  stubs.o ABSOLUTE
    _printf_longlong_dec                     0x00000000   Number         0  stubs.o ABSOLUTE
    _printf_longlong_hex                     0x00000000   Number         0  stubs.o ABSOLUTE
    _printf_longlong_oct                     0x00000000   Number         0  stubs.o ABSOLUTE
    _printf_ls                               0x00000000   Number         0  stubs.o ABSOLUTE
    _printf_mbtowc                           0x00000000   Number         0  stubs.o ABSOLUTE
    _printf_n                                0x00000000   Number         0  stubs.o ABSOLUTE
    _printf_o                                0x00000000   Number         0  stubs.o ABSOLUTE
    _printf_p                                0x00000000   Number         0  stubs.o ABSOLUTE
    _printf_percent                          0x00000000   Number         0  stubs.o ABSOLUTE
    _printf_pre_padding                      0x00000000   Number         0  stubs.o ABSOLUTE
    _printf_return_value                     0x00000000   Number         0  stubs.o ABSOLUTE
    _printf_s                                0x00000000   Number         0  stubs.o ABSOLUTE
    _printf_sizespec                         0x00000000   Number         0  stubs.o ABSOLUTE
    _printf_str                              0x00000000   Number         0  stubs.o ABSOLUTE
    _printf_truncate_signed                  0x00000000   Number         0  stubs.o ABSOLUTE
    _printf_truncate_unsigned                0x00000000   Number         0  stubs.o ABSOLUTE
    _printf_u                                0x00000000   Number         0  stubs.o ABSOLUTE
    _printf_wc                               0x00000000   Number         0  stubs.o ABSOLUTE
    _printf_wctomb                           0x00000000   Number         0  stubs.o ABSOLUTE
    _printf_widthprec                        0x00000000   Number         0  stubs.o ABSOLUTE
    _printf_x                                0x00000000   Number         0  stubs.o ABSOLUTE
    __cpp_initialize__aeabi_                  - Undefined Weak Reference
    __cxa_finalize                            - Undefined Weak Reference
    __decompress                              - Undefined Weak Reference
    _clock_init                               - Undefined Weak Reference
    _microlib_exit                            - Undefined Weak Reference
    __Vectors                                0x08000000   Data           4  stm32f10x.o(RESET)
    __main                                   0x080000ed   Thumb Code     0  entry.o(.ARM.Collect$$$$00000000)
    _main_stk                                0x080000ed   Thumb Code     0  entry2.o(.ARM.Collect$$$$00000001)
    _main_scatterload                        0x080000f1   Thumb Code     0  entry5.o(.ARM.Collect$$$$00000004)
    __main_after_scatterload                 0x080000f5   Thumb Code     0  entry5.o(.ARM.Collect$$$$00000004)
    _main_clock                              0x080000f5   Thumb Code     0  entry7b.o(.ARM.Collect$$$$00000008)
    _main_cpp_init                           0x080000f5   Thumb Code     0  entry8b.o(.ARM.Collect$$$$0000000A)
    _main_init                               0x080000f5   Thumb Code     0  entry9a.o(.ARM.Collect$$$$0000000B)
    __rt_final_cpp                           0x080000fd   Thumb Code     0  entry10a.o(.ARM.Collect$$$$0000000D)
    __rt_final_exit                          0x080000fd   Thumb Code     0  entry11a.o(.ARM.Collect$$$$0000000F)
    vPortSVCHandler                          0x08000101   Thumb Code    32  port.o(.emb_text)
    __asm___6_port_c_39a90d8d__prvStartFirstTask 0x08000125   Thumb Code    28  port.o(.emb_text)
    xPortPendSVHandler                       0x08000145   Thumb Code    72  port.o(.emb_text)
    vPortGetIPSR                             0x08000191   Thumb Code     6  port.o(.emb_text)
    Reset_Handler                            0x08000199   Thumb Code     4  stm32f10x.o(.text)
    NMI_Handler                              0x0800019d   Thumb Code     2  stm32f10x.o(.text)
    HardFault_Handler                        0x0800019f   Thumb Code     2  stm32f10x.o(.text)
    MemManage_Handler                        0x080001a1   Thumb Code     2  stm32f10x.o(.text)
    BusFault_Handler                         0x080001a3   Thumb Code     2  stm32f10x.o(.text)
    UsageFault_Handler                       0x080001a5   Thumb Code     2  stm32f10x.o(.text)
    SVC_Handler                              0x080001a7   Thumb Code     2  stm32f10x.o(.text)
    DebugMon_Handler                         0x080001a9   Thumb Code     2  stm32f10x.o(.text)
    PendSV_Handler                           0x080001ab   Thumb Code     2  stm32f10x.o(.text)
    SysTick_Handler                          0x080001ad   Thumb Code     2  stm32f10x.o(.text)
    ADC_IRQHandler                           0x080001af   Thumb Code     0  stm32f10x.o(.text)
    CAN_RX1_IRQHandler                       0x080001af   Thumb Code     0  stm32f10x.o(.text)
    CAN_SCE_IRQHandler                       0x080001af   Thumb Code     0  stm32f10x.o(.text)
    DMAChannel1_IRQHandler                   0x080001af   Thumb Code     0  stm32f10x.o(.text)
    DMAChannel2_IRQHandler                   0x080001af   Thumb Code     0  stm32f10x.o(.text)
    DMAChannel3_IRQHandler                   0x080001af   Thumb Code     0  stm32f10x.o(.text)
    DMAChannel4_IRQHandler                   0x080001af   Thumb Code     0  stm32f10x.o(.text)
    DMAChannel5_IRQHandler                   0x080001af   Thumb Code     0  stm32f10x.o(.text)
    DMAChannel6_IRQHandler                   0x080001af   Thumb Code     0  stm32f10x.o(.text)
    DMAChannel7_IRQHandler                   0x080001af   Thumb Code     0  stm32f10x.o(.text)
    EXTI0_IRQHandler                         0x080001af   Thumb Code     0  stm32f10x.o(.text)
    EXTI15_10_IRQHandler                     0x080001af   Thumb Code     0  stm32f10x.o(.text)
    EXTI1_IRQHandler                         0x080001af   Thumb Code     0  stm32f10x.o(.text)
    EXTI2_IRQHandler                         0x080001af   Thumb Code     0  stm32f10x.o(.text)
    EXTI3_IRQHandler                         0x080001af   Thumb Code     0  stm32f10x.o(.text)
    EXTI4_IRQHandler                         0x080001af   Thumb Code     0  stm32f10x.o(.text)
    EXTI9_5_IRQHandler                       0x080001af   Thumb Code     0  stm32f10x.o(.text)
    FLASH_IRQHandler                         0x080001af   Thumb Code     0  stm32f10x.o(.text)
    I2C1_ER_IRQHandler                       0x080001af   Thumb Code     0  stm32f10x.o(.text)
    I2C1_EV_IRQHandler                       0x080001af   Thumb Code     0  stm32f10x.o(.text)
    I2C2_ER_IRQHandler                       0x080001af   Thumb Code     0  stm32f10x.o(.text)
    I2C2_EV_IRQHandler                       0x080001af   Thumb Code     0  stm32f10x.o(.text)
    PVD_IRQHandler                           0x080001af   Thumb Code     0  stm32f10x.o(.text)
    RCC_IRQHandler                           0x080001af   Thumb Code     0  stm32f10x.o(.text)
    RTCAlarm_IRQHandler                      0x080001af   Thumb Code     0  stm32f10x.o(.text)
    RTC_IRQHandler                           0x080001af   Thumb Code     0  stm32f10x.o(.text)
    SPI1_IRQHandler                          0x080001af   Thumb Code     0  stm32f10x.o(.text)
    SPI2_IRQHandler                          0x080001af   Thumb Code     0  stm32f10x.o(.text)
    TAMPER_IRQHandler                        0x080001af   Thumb Code     0  stm32f10x.o(.text)
    TIM1_BRK_IRQHandler                      0x080001af   Thumb Code     0  stm32f10x.o(.text)
    TIM1_CC_IRQHandler                       0x080001af   Thumb Code     0  stm32f10x.o(.text)
    TIM1_TRG_COM_IRQHandler                  0x080001af   Thumb Code     0  stm32f10x.o(.text)
    TIM1_UP_IRQHandler                       0x080001af   Thumb Code     0  stm32f10x.o(.text)
    TIM2_IRQHandler                          0x080001af   Thumb Code     0  stm32f10x.o(.text)
    TIM3_IRQHandler                          0x080001af   Thumb Code     0  stm32f10x.o(.text)
    TIM4_IRQHandler                          0x080001af   Thumb Code     0  stm32f10x.o(.text)
    USART1_IRQHandler                        0x080001af   Thumb Code     0  stm32f10x.o(.text)
    USART2_IRQHandler                        0x080001af   Thumb Code     0  stm32f10x.o(.text)
    USART3_IRQHandler                        0x080001af   Thumb Code     0  stm32f10x.o(.text)
    USBWakeUp_IRQHandler                     0x080001af   Thumb Code     0  stm32f10x.o(.text)
    USB_HP_CAN_TX_IRQHandler                 0x080001af   Thumb Code     0  stm32f10x.o(.text)
    USB_LP_CAN_RX0_IRQHandler                0x080001af   Thumb Code     0  stm32f10x.o(.text)
    WWDG_IRQHandler                          0x080001af   Thumb Code     0  stm32f10x.o(.text)
    __WFI                                    0x080001b5   Thumb Code     0  cortexm3_macro_rvds.o(.text)
    __WFE                                    0x080001b9   Thumb Code     0  cortexm3_macro_rvds.o(.text)
    __SEV                                    0x080001bd   Thumb Code     0  cortexm3_macro_rvds.o(.text)
    __ISB                                    0x080001c1   Thumb Code     0  cortexm3_macro_rvds.o(.text)
    __DSB                                    0x080001c7   Thumb Code     0  cortexm3_macro_rvds.o(.text)
    __DMB                                    0x080001cd   Thumb Code     0  cortexm3_macro_rvds.o(.text)
    __SVC                                    0x080001d3   Thumb Code     0  cortexm3_macro_rvds.o(.text)
    __MRS_CONTROL                            0x080001d7   Thumb Code     0  cortexm3_macro_rvds.o(.text)
    __MSR_CONTROL                            0x080001dd   Thumb Code     0  cortexm3_macro_rvds.o(.text)
    __MRS_PSP                                0x080001e7   Thumb Code     0  cortexm3_macro_rvds.o(.text)
    __MSR_PSP                                0x080001ed   Thumb Code     0  cortexm3_macro_rvds.o(.text)
    __MRS_MSP                                0x080001f3   Thumb Code     0  cortexm3_macro_rvds.o(.text)
    __MSR_MSP                                0x080001f9   Thumb Code     0  cortexm3_macro_rvds.o(.text)
    __SETPRIMASK                             0x080001ff   Thumb Code     0  cortexm3_macro_rvds.o(.text)
    __RESETPRIMASK                           0x08000203   Thumb Code     0  cortexm3_macro_rvds.o(.text)
    __SETFAULTMASK                           0x08000207   Thumb Code     0  cortexm3_macro_rvds.o(.text)
    __RESETFAULTMASK                         0x0800020b   Thumb Code     0  cortexm3_macro_rvds.o(.text)
    __BASEPRICONFIG                          0x0800020f   Thumb Code     0  cortexm3_macro_rvds.o(.text)
    __GetBASEPRI                             0x08000215   Thumb Code     0  cortexm3_macro_rvds.o(.text)
    __REV_HalfWord                           0x0800021b   Thumb Code     0  cortexm3_macro_rvds.o(.text)
    __REV_Word                               0x0800021f   Thumb Code     0  cortexm3_macro_rvds.o(.text)
    USART_DeInit                             0x08000225   Thumb Code    88  stm32f10x_usart.o(.text)
    USART_Init                               0x0800027d   Thumb Code   168  stm32f10x_usart.o(.text)
    USART_StructInit                         0x08000325   Thumb Code    32  stm32f10x_usart.o(.text)
    USART_Cmd                                0x08000345   Thumb Code    24  stm32f10x_usart.o(.text)
    USART_ITConfig                           0x0800035d   Thumb Code    64  stm32f10x_usart.o(.text)
    USART_DMACmd                             0x0800039d   Thumb Code    18  stm32f10x_usart.o(.text)
    USART_SetAddress                         0x080003af   Thumb Code    18  stm32f10x_usart.o(.text)
    USART_WakeUpConfig                       0x080003c1   Thumb Code    18  stm32f10x_usart.o(.text)
    USART_ReceiverWakeUpCmd                  0x080003d3   Thumb Code    24  stm32f10x_usart.o(.text)
    USART_LINBreakDetectLengthConfig         0x080003eb   Thumb Code    18  stm32f10x_usart.o(.text)
    USART_LINCmd                             0x080003fd   Thumb Code    24  stm32f10x_usart.o(.text)
    USART_SendData                           0x08000415   Thumb Code     8  stm32f10x_usart.o(.text)
    USART_ReceiveData                        0x0800041d   Thumb Code    10  stm32f10x_usart.o(.text)
    USART_SendBreak                          0x08000427   Thumb Code    10  stm32f10x_usart.o(.text)
    USART_SetGuardTime                       0x08000431   Thumb Code    16  stm32f10x_usart.o(.text)
    USART_SetPrescaler                       0x08000441   Thumb Code    16  stm32f10x_usart.o(.text)
    USART_SmartCardCmd                       0x08000451   Thumb Code    24  stm32f10x_usart.o(.text)
    USART_SmartCardNACKCmd                   0x08000469   Thumb Code    24  stm32f10x_usart.o(.text)
    USART_HalfDuplexCmd                      0x08000481   Thumb Code    24  stm32f10x_usart.o(.text)
    USART_IrDAConfig                         0x08000499   Thumb Code    18  stm32f10x_usart.o(.text)
    USART_IrDACmd                            0x080004ab   Thumb Code    24  stm32f10x_usart.o(.text)
    USART_GetFlagStatus                      0x080004c3   Thumb Code    18  stm32f10x_usart.o(.text)
    USART_ClearFlag                          0x080004d5   Thumb Code     8  stm32f10x_usart.o(.text)
    USART_GetITStatus                        0x080004dd   Thumb Code    76  stm32f10x_usart.o(.text)
    USART_ClearITPendingBit                  0x08000529   Thumb Code    22  stm32f10x_usart.o(.text)
    GPIO_DeInit                              0x08000549   Thumb Code   138  stm32f10x_gpio.o(.text)
    GPIO_AFIODeInit                          0x080005d3   Thumb Code    20  stm32f10x_gpio.o(.text)
    GPIO_Init                                0x080005e7   Thumb Code   278  stm32f10x_gpio.o(.text)
    GPIO_StructInit                          0x080006fd   Thumb Code    16  stm32f10x_gpio.o(.text)
    GPIO_ReadInputDataBit                    0x0800070d   Thumb Code    18  stm32f10x_gpio.o(.text)
    GPIO_ReadInputData                       0x0800071f   Thumb Code     8  stm32f10x_gpio.o(.text)
    GPIO_ReadOutputDataBit                   0x08000727   Thumb Code    18  stm32f10x_gpio.o(.text)
    GPIO_ReadOutputData                      0x08000739   Thumb Code     8  stm32f10x_gpio.o(.text)
    GPIO_WriteBit                            0x08000741   Thumb Code    10  stm32f10x_gpio.o(.text)
    GPIO_Write                               0x0800074b   Thumb Code     4  stm32f10x_gpio.o(.text)
    GPIO_PinLockConfig                       0x0800074f   Thumb Code    18  stm32f10x_gpio.o(.text)
    GPIO_EventOutputConfig                   0x08000761   Thumb Code    26  stm32f10x_gpio.o(.text)
    GPIO_EventOutputCmd                      0x0800077b   Thumb Code     6  stm32f10x_gpio.o(.text)
    GPIO_PinRemapConfig                      0x08000781   Thumb Code    86  stm32f10x_gpio.o(.text)
    GPIO_EXTILineConfig                      0x080007d7   Thumb Code    66  stm32f10x_gpio.o(.text)
    NVIC_DeInit                              0x08000829   Thumb Code    54  stm32f10x_nvic.o(.text)
    NVIC_SCBDeInit                           0x0800085f   Thumb Code    76  stm32f10x_nvic.o(.text)
    NVIC_PriorityGroupConfig                 0x080008ab   Thumb Code    12  stm32f10x_nvic.o(.text)
    NVIC_Init                                0x080008b7   Thumb Code   152  stm32f10x_nvic.o(.text)
    NVIC_StructInit                          0x0800094f   Thumb Code    12  stm32f10x_nvic.o(.text)
    NVIC_SETPRIMASK                          0x0800095b   Thumb Code     8  stm32f10x_nvic.o(.text)
    NVIC_RESETPRIMASK                        0x08000963   Thumb Code     8  stm32f10x_nvic.o(.text)
    NVIC_SETFAULTMASK                        0x0800096b   Thumb Code     8  stm32f10x_nvic.o(.text)
    NVIC_RESETFAULTMASK                      0x08000973   Thumb Code     8  stm32f10x_nvic.o(.text)
    NVIC_BASEPRICONFIG                       0x0800097b   Thumb Code    12  stm32f10x_nvic.o(.text)
    NVIC_GetBASEPRI                          0x08000987   Thumb Code     8  stm32f10x_nvic.o(.text)
    NVIC_GetCurrentPendingIRQChannel         0x0800098f   Thumb Code    10  stm32f10x_nvic.o(.text)
    NVIC_GetIRQChannelPendingBitStatus       0x08000999   Thumb Code    42  stm32f10x_nvic.o(.text)
    NVIC_SetIRQChannelPendingBit             0x080009c3   Thumb Code     6  stm32f10x_nvic.o(.text)
    NVIC_ClearIRQChannelPendingBit           0x080009c9   Thumb Code    20  stm32f10x_nvic.o(.text)
    NVIC_GetCurrentActiveHandler             0x080009dd   Thumb Code    10  stm32f10x_nvic.o(.text)
    NVIC_GetIRQChannelActiveBitStatus        0x080009e7   Thumb Code    42  stm32f10x_nvic.o(.text)
    NVIC_GetCPUID                            0x08000a11   Thumb Code     8  stm32f10x_nvic.o(.text)
    NVIC_SetVectorTable                      0x08000a19   Thumb Code    22  stm32f10x_nvic.o(.text)
    NVIC_GenerateSystemReset                 0x08000a2f   Thumb Code    12  stm32f10x_nvic.o(.text)
    NVIC_GenerateCoreReset                   0x08000a3b   Thumb Code    12  stm32f10x_nvic.o(.text)
    NVIC_SystemLPConfig                      0x08000a47   Thumb Code    34  stm32f10x_nvic.o(.text)
    NVIC_SystemHandlerConfig                 0x08000a69   Thumb Code    48  stm32f10x_nvic.o(.text)
    NVIC_SystemHandlerPriorityConfig         0x08000a99   Thumb Code   110  stm32f10x_nvic.o(.text)
    NVIC_GetSystemHandlerPendingBitStatus    0x08000b07   Thumb Code    44  stm32f10x_nvic.o(.text)
    NVIC_SetSystemHandlerPendingBit          0x08000b33   Thumb Code    22  stm32f10x_nvic.o(.text)
    NVIC_ClearSystemHandlerPendingBit        0x08000b49   Thumb Code    26  stm32f10x_nvic.o(.text)
    NVIC_GetSystemHandlerActiveBitStatus     0x08000b63   Thumb Code    42  stm32f10x_nvic.o(.text)
    NVIC_GetFaultHandlerSources              0x08000b8d   Thumb Code    66  stm32f10x_nvic.o(.text)
    NVIC_GetFaultAddress                     0x08000bcf   Thumb Code    28  stm32f10x_nvic.o(.text)
    RCC_DeInit                               0x08000c09   Thumb Code    78  stm32f10x_rcc.o(.text)
    RCC_HSEConfig                            0x08000c57   Thumb Code    70  stm32f10x_rcc.o(.text)
    RCC_AdjustHSICalibrationValue            0x08000c9d   Thumb Code    20  stm32f10x_rcc.o(.text)
    RCC_HSICmd                               0x08000cb1   Thumb Code     6  stm32f10x_rcc.o(.text)
    RCC_PLLConfig                            0x08000cb7   Thumb Code    24  stm32f10x_rcc.o(.text)
    RCC_PLLCmd                               0x08000ccf   Thumb Code     6  stm32f10x_rcc.o(.text)
    RCC_SYSCLKConfig                         0x08000cd5   Thumb Code    18  stm32f10x_rcc.o(.text)
    RCC_GetSYSCLKSource                      0x08000ce7   Thumb Code    10  stm32f10x_rcc.o(.text)
    RCC_HCLKConfig                           0x08000cf1   Thumb Code    18  stm32f10x_rcc.o(.text)
    RCC_PCLK1Config                          0x08000d03   Thumb Code    18  stm32f10x_rcc.o(.text)
    RCC_PCLK2Config                          0x08000d15   Thumb Code    20  stm32f10x_rcc.o(.text)
    RCC_ITConfig                             0x08000d29   Thumb Code    26  stm32f10x_rcc.o(.text)
    RCC_USBCLKConfig                         0x08000d43   Thumb Code     8  stm32f10x_rcc.o(.text)
    RCC_ADCCLKConfig                         0x08000d4b   Thumb Code    18  stm32f10x_rcc.o(.text)
    RCC_LSEConfig                            0x08000d5d   Thumb Code    50  stm32f10x_rcc.o(.text)
    RCC_LSICmd                               0x08000d8f   Thumb Code     6  stm32f10x_rcc.o(.text)
    RCC_RTCCLKConfig                         0x08000d95   Thumb Code    12  stm32f10x_rcc.o(.text)
    RCC_RTCCLKCmd                            0x08000da1   Thumb Code     8  stm32f10x_rcc.o(.text)
    RCC_GetClocksFreq                        0x08000da9   Thumb Code   192  stm32f10x_rcc.o(.text)
    RCC_AHBPeriphClockCmd                    0x08000e69   Thumb Code    26  stm32f10x_rcc.o(.text)
    RCC_APB2PeriphClockCmd                   0x08000e83   Thumb Code    26  stm32f10x_rcc.o(.text)
    RCC_APB1PeriphClockCmd                   0x08000e9d   Thumb Code    26  stm32f10x_rcc.o(.text)
    RCC_APB2PeriphResetCmd                   0x08000eb7   Thumb Code    26  stm32f10x_rcc.o(.text)
    RCC_APB1PeriphResetCmd                   0x08000ed1   Thumb Code    26  stm32f10x_rcc.o(.text)
    RCC_BackupResetCmd                       0x08000eeb   Thumb Code     8  stm32f10x_rcc.o(.text)
    RCC_ClockSecuritySystemCmd               0x08000ef3   Thumb Code     6  stm32f10x_rcc.o(.text)
    RCC_MCOConfig                            0x08000ef9   Thumb Code     6  stm32f10x_rcc.o(.text)
    RCC_GetFlagStatus                        0x08000eff   Thumb Code    56  stm32f10x_rcc.o(.text)
    RCC_ClearFlag                            0x08000f37   Thumb Code    14  stm32f10x_rcc.o(.text)
    RCC_GetITStatus                          0x08000f45   Thumb Code    20  stm32f10x_rcc.o(.text)
    RCC_ClearITPendingBit                    0x08000f59   Thumb Code     6  stm32f10x_rcc.o(.text)
    SysTick_CLKSourceConfig                  0x08000f85   Thumb Code    40  stm32f10x_systick.o(.text)
    SysTick_SetReload                        0x08000fad   Thumb Code     8  stm32f10x_systick.o(.text)
    SysTick_CounterCmd                       0x08000fb5   Thumb Code    52  stm32f10x_systick.o(.text)
    SysTick_ITConfig                         0x08000fe9   Thumb Code    38  stm32f10x_systick.o(.text)
    SysTick_GetCounter                       0x0800100f   Thumb Code     8  stm32f10x_systick.o(.text)
    SysTick_GetFlagStatus                    0x08001017   Thumb Code    50  stm32f10x_systick.o(.text)
    TIM_DeInit                               0x08001049   Thumb Code    84  stm32f10x_tim.o(.text)
    TIM_TimeBaseInit                         0x0800109d   Thumb Code    30  stm32f10x_tim.o(.text)
    TIM_OCInit                               0x080010bb   Thumb Code   214  stm32f10x_tim.o(.text)
    TIM_SetIC1Prescaler                      0x08001191   Thumb Code    18  stm32f10x_tim.o(.text)
    TIM_SetIC2Prescaler                      0x080011db   Thumb Code    26  stm32f10x_tim.o(.text)
    TIM_SetIC4Prescaler                      0x080012c1   Thumb Code    26  stm32f10x_tim.o(.text)
    TIM_SetIC3Prescaler                      0x0800132d   Thumb Code    18  stm32f10x_tim.o(.text)
    TIM_ICInit                               0x08001381   Thumb Code   126  stm32f10x_tim.o(.text)
    TIM_TimeBaseStructInit                   0x080013ff   Thumb Code    12  stm32f10x_tim.o(.text)
    TIM_OCStructInit                         0x0800140b   Thumb Code    12  stm32f10x_tim.o(.text)
    TIM_ICStructInit                         0x08001417   Thumb Code    34  stm32f10x_tim.o(.text)
    TIM_Cmd                                  0x08001439   Thumb Code    24  stm32f10x_tim.o(.text)
    TIM_ITConfig                             0x08001451   Thumb Code    18  stm32f10x_tim.o(.text)
    TIM_DMAConfig                            0x08001463   Thumb Code    22  stm32f10x_tim.o(.text)
    TIM_DMACmd                               0x08001479   Thumb Code    24  stm32f10x_tim.o(.text)
    TIM_InternalClockConfig                  0x08001491   Thumb Code    12  stm32f10x_tim.o(.text)
    TIM_SelectInputTrigger                   0x0800149d   Thumb Code    18  stm32f10x_tim.o(.text)
    TIM_ITRxExternalClockConfig              0x080014af   Thumb Code    24  stm32f10x_tim.o(.text)
    TIM_TIxExternalClockConfig               0x080014c7   Thumb Code    62  stm32f10x_tim.o(.text)
    TIM_ETRClockMode1Config                  0x0800151f   Thumb Code    64  stm32f10x_tim.o(.text)
    TIM_ETRClockMode2Config                  0x0800155f   Thumb Code    36  stm32f10x_tim.o(.text)
    TIM_PrescalerConfig                      0x08001583   Thumb Code    26  stm32f10x_tim.o(.text)
    TIM_CounterModeConfig                    0x0800159d   Thumb Code    18  stm32f10x_tim.o(.text)
    TIM_ForcedOC1Config                      0x080015af   Thumb Code    18  stm32f10x_tim.o(.text)
    TIM_ForcedOC2Config                      0x080015c1   Thumb Code    26  stm32f10x_tim.o(.text)
    TIM_ForcedOC3Config                      0x080015db   Thumb Code    18  stm32f10x_tim.o(.text)
    TIM_ForcedOC4Config                      0x080015ed   Thumb Code    26  stm32f10x_tim.o(.text)
    TIM_ARRPreloadConfig                     0x08001607   Thumb Code    24  stm32f10x_tim.o(.text)
    TIM_SelectCCDMA                          0x0800161f   Thumb Code    22  stm32f10x_tim.o(.text)
    TIM_OC1PreloadConfig                     0x08001635   Thumb Code    18  stm32f10x_tim.o(.text)
    TIM_OC2PreloadConfig                     0x08001647   Thumb Code    26  stm32f10x_tim.o(.text)
    TIM_OC3PreloadConfig                     0x08001661   Thumb Code    18  stm32f10x_tim.o(.text)
    TIM_OC4PreloadConfig                     0x08001673   Thumb Code    26  stm32f10x_tim.o(.text)
    TIM_OC1FastConfig                        0x0800168d   Thumb Code    18  stm32f10x_tim.o(.text)
    TIM_OC2FastConfig                        0x0800169f   Thumb Code    26  stm32f10x_tim.o(.text)
    TIM_OC3FastConfig                        0x080016b9   Thumb Code    18  stm32f10x_tim.o(.text)
    TIM_OC4FastConfig                        0x080016cb   Thumb Code    26  stm32f10x_tim.o(.text)
    TIM_UpdateDisableConfig                  0x080016e5   Thumb Code    24  stm32f10x_tim.o(.text)
    TIM_EncoderInterfaceConfig               0x080016fd   Thumb Code    66  stm32f10x_tim.o(.text)
    TIM_GenerateEvent                        0x0800173f   Thumb Code     8  stm32f10x_tim.o(.text)
    TIM_OC1PolarityConfig                    0x08001747   Thumb Code    18  stm32f10x_tim.o(.text)
    TIM_OC2PolarityConfig                    0x08001759   Thumb Code    26  stm32f10x_tim.o(.text)
    TIM_OC3PolarityConfig                    0x08001773   Thumb Code    26  stm32f10x_tim.o(.text)
    TIM_OC4PolarityConfig                    0x0800178d   Thumb Code    26  stm32f10x_tim.o(.text)
    TIM_UpdateRequestConfig                  0x080017a7   Thumb Code    26  stm32f10x_tim.o(.text)
    TIM_SelectHallSensor                     0x080017c1   Thumb Code    24  stm32f10x_tim.o(.text)
    TIM_SelectOnePulseMode                   0x080017d9   Thumb Code    18  stm32f10x_tim.o(.text)
    TIM_SelectOutputTrigger                  0x080017eb   Thumb Code    16  stm32f10x_tim.o(.text)
    TIM_SelectSlaveMode                      0x080017fb   Thumb Code    18  stm32f10x_tim.o(.text)
    TIM_SelectMasterSlaveMode                0x0800180d   Thumb Code    18  stm32f10x_tim.o(.text)
    TIM_SetAutoreload                        0x0800181f   Thumb Code     4  stm32f10x_tim.o(.text)
    TIM_SetCompare1                          0x08001823   Thumb Code     4  stm32f10x_tim.o(.text)
    TIM_SetCompare2                          0x08001827   Thumb Code     4  stm32f10x_tim.o(.text)
    TIM_SetCompare3                          0x0800182b   Thumb Code     4  stm32f10x_tim.o(.text)
    TIM_SetCompare4                          0x0800182f   Thumb Code     6  stm32f10x_tim.o(.text)
    TIM_SetClockDivision                     0x08001835   Thumb Code    14  stm32f10x_tim.o(.text)
    TIM_GetCapture1                          0x08001843   Thumb Code     6  stm32f10x_tim.o(.text)
    TIM_GetCapture2                          0x08001849   Thumb Code     6  stm32f10x_tim.o(.text)
    TIM_GetCapture3                          0x0800184f   Thumb Code     6  stm32f10x_tim.o(.text)
    TIM_GetCapture4                          0x08001855   Thumb Code     8  stm32f10x_tim.o(.text)
    TIM_GetCounter                           0x0800185d   Thumb Code     6  stm32f10x_tim.o(.text)
    TIM_GetPrescaler                         0x08001863   Thumb Code     6  stm32f10x_tim.o(.text)
    TIM_GetFlagStatus                        0x08001869   Thumb Code    18  stm32f10x_tim.o(.text)
    TIM_ClearFlag                            0x0800187b   Thumb Code     8  stm32f10x_tim.o(.text)
    TIM_GetITStatus                          0x08001883   Thumb Code    34  stm32f10x_tim.o(.text)
    TIM_ClearITPendingBit                    0x080018a5   Thumb Code     8  stm32f10x_tim.o(.text)
    UART_Init                                0x080018ad   Thumb Code   148  serial.o(.text)
    vUARTInterruptHandler                    0x08001941   Thumb Code     2  serial.o(.text)
    fputc                                    0x08001943   Thumb Code    32  serial.o(.text)
    fgetc                                    0x08001963   Thumb Code    32  serial.o(.text)
    _sys_exit                                0x08001983   Thumb Code     2  serial.o(.text)
    vSetupTimerTest                          0x0800198d   Thumb Code   156  timertest.o(.text)
    vTimer2IntHandler                        0x08001a29   Thumb Code    72  timertest.o(.text)
    main                                     0x08001b67   Thumb Code    98  main.o(.text)
    xTaskCreate                              0x08001d9d   Thumb Code    96  tasks.o(.text)
    vTaskDelete                              0x08001e37   Thumb Code   166  tasks.o(.text)
    xTaskIncrementTick                       0x08001edd   Thumb Code   238  tasks.o(.text)
    xTaskResumeAll                           0x08001fcb   Thumb Code   282  tasks.o(.text)
    vTaskSuspendAll                          0x08002161   Thumb Code    12  tasks.o(.text)
    xTaskDelayUntil                          0x0800216d   Thumb Code   108  tasks.o(.text)
    vTaskDelay                               0x080021d9   Thumb Code    46  tasks.o(.text)
    uxTaskPriorityGet                        0x08002207   Thumb Code    30  tasks.o(.text)
    uxTaskPriorityGetFromISR                 0x08002225   Thumb Code    52  tasks.o(.text)
    vTaskPrioritySet                         0x08002259   Thumb Code   226  tasks.o(.text)
    vTaskSwitchContext                       0x0800233b   Thumb Code    76  tasks.o(.text)
    vTaskSuspend                             0x08002387   Thumb Code   188  tasks.o(.text)
    vTaskResume                              0x080024b9   Thumb Code   104  tasks.o(.text)
    xTaskResumeFromISR                       0x08002521   Thumb Code   136  tasks.o(.text)
    vTaskStartScheduler                      0x08002605   Thumb Code    86  tasks.o(.text)
    vTaskEndScheduler                        0x0800265b   Thumb Code    32  tasks.o(.text)
    xTaskGetTickCount                        0x0800267b   Thumb Code     6  tasks.o(.text)
    xTaskGetTickCountFromISR                 0x08002681   Thumb Code     8  tasks.o(.text)
    uxTaskGetNumberOfTasks                   0x08002689   Thumb Code     6  tasks.o(.text)
    pcTaskGetName                            0x0800268f   Thumb Code    20  tasks.o(.text)
    xTaskCatchUpTicks                        0x080026a3   Thumb Code    28  tasks.o(.text)
    vTaskPlaceOnEventList                    0x080026bf   Thumb Code    28  tasks.o(.text)
    vTaskPlaceOnUnorderedEventList           0x080026db   Thumb Code    40  tasks.o(.text)
    vTaskPlaceOnEventListRestricted          0x08002703   Thumb Code    36  tasks.o(.text)
    xTaskRemoveFromEventList                 0x08002727   Thumb Code   104  tasks.o(.text)
    vTaskRemoveFromUnorderedEventList        0x0800278f   Thumb Code    82  tasks.o(.text)
    vTaskSetTimeOutState                     0x080027e1   Thumb Code    26  tasks.o(.text)
    vTaskInternalSetTimeOutState             0x080027fb   Thumb Code    14  tasks.o(.text)
    xTaskCheckForTimeOut                     0x08002809   Thumb Code    88  tasks.o(.text)
    vTaskMissedYield                         0x08002861   Thumb Code     8  tasks.o(.text)
    xTaskGetCurrentTaskHandle                0x08002869   Thumb Code     6  tasks.o(.text)
    xTaskGetSchedulerState                   0x0800286f   Thumb Code    24  tasks.o(.text)
    xTaskPriorityInherit                     0x08002887   Thumb Code   256  tasks.o(.text)
    xTaskPriorityDisinherit                  0x08002987   Thumb Code   108  tasks.o(.text)
    vTaskPriorityDisinheritAfterTimeout      0x080029f3   Thumb Code   152  tasks.o(.text)
    uxTaskResetEventItemValue                0x08002a8b   Thumb Code    24  tasks.o(.text)
    pvTaskIncrementMutexHeldCount            0x08002aa3   Thumb Code    26  tasks.o(.text)
    ulTaskGenericNotifyTake                  0x08002abd   Thumb Code   128  tasks.o(.text)
    xTaskGenericNotifyWait                   0x08002b3d   Thumb Code   164  tasks.o(.text)
    xTaskGenericNotify                       0x08002be1   Thumb Code   234  tasks.o(.text)
    xTaskGenericNotifyFromISR                0x08002ccb   Thumb Code   294  tasks.o(.text)
    vTaskGenericNotifyGiveFromISR            0x08002df1   Thumb Code   166  tasks.o(.text)
    xTaskGenericNotifyStateClear             0x08002e97   Thumb Code    58  tasks.o(.text)
    ulTaskGenericNotifyValueClear            0x08002ed1   Thumb Code    58  tasks.o(.text)
    vListInitialise                          0x08002f25   Thumb Code    26  list.o(.text)
    vListInitialiseItem                      0x08002f3f   Thumb Code     6  list.o(.text)
    vListInsertEnd                           0x08002f45   Thumb Code    24  list.o(.text)
    vListInsert                              0x08002f5d   Thumb Code    52  list.o(.text)
    uxListRemove                             0x08002f91   Thumb Code    40  list.o(.text)
    xQueueGenericReset                       0x08002fb9   Thumb Code   122  queue.o(.text)
    xQueueGenericCreate                      0x08003059   Thumb Code    52  queue.o(.text)
    xQueueGenericSend                        0x080031a7   Thumb Code   276  queue.o(.text)
    xQueueCreateMutex                        0x080032d9   Thumb Code    34  queue.o(.text)
    xQueueCreateCountingSemaphore            0x080032fb   Thumb Code    26  queue.o(.text)
    xQueueGenericSendFromISR                 0x08003315   Thumb Code   138  queue.o(.text)
    xQueueGiveFromISR                        0x0800339f   Thumb Code   124  queue.o(.text)
    xQueueReceive                            0x0800345f   Thumb Code   256  queue.o(.text)
    xQueueSemaphoreTake                      0x08003573   Thumb Code   300  queue.o(.text)
    xQueuePeek                               0x0800369f   Thumb Code   262  queue.o(.text)
    xQueueReceiveFromISR                     0x080037a5   Thumb Code   130  queue.o(.text)
    xQueuePeekFromISR                        0x08003827   Thumb Code    74  queue.o(.text)
    uxQueueMessagesWaiting                   0x08003871   Thumb Code    24  queue.o(.text)
    uxQueueSpacesAvailable                   0x08003889   Thumb Code    24  queue.o(.text)
    uxQueueMessagesWaitingFromISR            0x080038a1   Thumb Code     8  queue.o(.text)
    vQueueDelete                             0x080038a9   Thumb Code    14  queue.o(.text)
    xQueueIsQueueEmptyFromISR                0x080038b7   Thumb Code    16  queue.o(.text)
    xQueueIsQueueFullFromISR                 0x080038c7   Thumb Code    22  queue.o(.text)
    vQueueWaitForMessageRestricted           0x080038dd   Thumb Code    74  queue.o(.text)
    pxPortInitialiseStack                    0x0800393f   Thumb Code    30  port.o(.text)
    vPortSetupTimerInterrupt                 0x0800395d   Thumb Code    20  port.o(.text)
    xPortStartScheduler                      0x08003971   Thumb Code    42  port.o(.text)
    vPortEndScheduler                        0x0800399b   Thumb Code     2  port.o(.text)
    vPortEnterCritical                       0x0800399d   Thumb Code    30  port.o(.text)
    vPortExitCritical                        0x080039bb   Thumb Code    28  port.o(.text)
    xPortSysTickHandler                      0x080039d7   Thumb Code    48  port.o(.text)
    pvPortMalloc                             0x08003a43   Thumb Code   190  heap_2.o(.text)
    vPortFree                                0x08003b01   Thumb Code    56  heap_2.o(.text)
    xPortGetFreeHeapSize                     0x08003b39   Thumb Code     6  heap_2.o(.text)
    vPortInitialiseBlocks                    0x08003b3f   Thumb Code     2  heap_2.o(.text)
    xTimerGenericCommand                     0x08003ba5   Thumb Code   102  timers.o(.text)
    xTimerCreateTimerTask                    0x08003ed9   Thumb Code    40  timers.o(.text)
    xTimerCreate                             0x08003f3b   Thumb Code    98  timers.o(.text)
    xTimerGetTimerDaemonTaskHandle           0x08003f9d   Thumb Code     6  timers.o(.text)
    xTimerGetPeriod                          0x08003fa3   Thumb Code     8  timers.o(.text)
    vTimerSetReloadMode                      0x08003fab   Thumb Code    46  timers.o(.text)
    uxTimerGetReloadMode                     0x08003fd9   Thumb Code    34  timers.o(.text)
    xTimerGetExpiryTime                      0x08003ffb   Thumb Code     8  timers.o(.text)
    pcTimerGetName                           0x08004003   Thumb Code     8  timers.o(.text)
    xTimerIsTimerActive                      0x0800400b   Thumb Code    34  timers.o(.text)
    pvTimerGetTimerID                        0x0800402d   Thumb Code    20  timers.o(.text)
    vTimerSetTimerID                         0x08004041   Thumb Code    20  timers.o(.text)
    __aeabi_memcpy                           0x08004059   Thumb Code    36  memcpya.o(.text)
    __aeabi_memcpy4                          0x08004059   Thumb Code     0  memcpya.o(.text)
    __aeabi_memcpy8                          0x08004059   Thumb Code     0  memcpya.o(.text)
    __aeabi_uidiv                            0x0800407d   Thumb Code     0  uidiv.o(.text)
    __aeabi_uidivmod                         0x0800407d   Thumb Code    44  uidiv.o(.text)
    __scatterload                            0x080040a9   Thumb Code    28  init.o(.text)
    __scatterload_rt2                        0x080040a9   Thumb Code     0  init.o(.text)
    __0printf$1                              0x080040cd   Thumb Code    22  printf1.o(i.__0printf$1)
    __1printf$1                              0x080040cd   Thumb Code     0  printf1.o(i.__0printf$1)
    __2printf                                0x080040cd   Thumb Code     0  printf1.o(i.__0printf$1)
    __scatterload_copy                       0x080040ed   Thumb Code    14  handlers.o(i.__scatterload_copy)
    __scatterload_null                       0x080040fb   Thumb Code     2  handlers.o(i.__scatterload_null)
    __scatterload_zeroinit                   0x080040fd   Thumb Code    14  handlers.o(i.__scatterload_zeroinit)
    Region$$Table$$Base                      0x08004284   Number         0  anon$$obj.o(Region$$Table)
    Region$$Table$$Limit                     0x080042a4   Number         0  anon$$obj.o(Region$$Table)
    __stdout                                 0x20000000   Data           4  serial.o(.data)
    __stdin                                  0x20000004   Data           4  serial.o(.data)
    usMaxJitter                              0x20000008   Data           2  timertest.o(.data)
    pxCurrentTCB                             0x2000001c   Data           4  tasks.o(.data)
    uxTopUsedPriority                        0x20000054   Data           4  tasks.o(.data)
    __initial_sp                             0x20004780   Data           0  stm32f10x.o(STACK)



==============================================================================

Memory Map of the image

  Image Entry point : 0x080000ed

  Load Region LR_IROM1 (Base: 0x08000000, Size: 0x00004330, Max: 0x00020000, ABSOLUTE)

    Execution Region ER_IROM1 (Exec base: 0x08000000, Load base: 0x08000000, Size: 0x000042a4, Max: 0x00020000, ABSOLUTE)

    Exec Addr    Load Addr    Size         Type   Attr      Idx    E Section Name        Object

    0x08000000   0x08000000   0x000000ec   Data   RO            3    RESET               stm32f10x.o
    0x080000ec   0x080000ec   0x00000000   Code   RO          443  * .ARM.Collect$$$$00000000  mc_w.l(entry.o)
    0x080000ec   0x080000ec   0x00000004   Code   RO          711    .ARM.Collect$$$$00000001  mc_w.l(entry2.o)
    0x080000f0   0x080000f0   0x00000004   Code   RO          714    .ARM.Collect$$$$00000004  mc_w.l(entry5.o)
    0x080000f4   0x080000f4   0x00000000   Code   RO          716    .ARM.Collect$$$$00000008  mc_w.l(entry7b.o)
    0x080000f4   0x080000f4   0x00000000   Code   RO          718    .ARM.Collect$$$$0000000A  mc_w.l(entry8b.o)
    0x080000f4   0x080000f4   0x00000008   Code   RO          719    .ARM.Collect$$$$0000000B  mc_w.l(entry9a.o)
    0x080000fc   0x080000fc   0x00000000   Code   RO          721    .ARM.Collect$$$$0000000D  mc_w.l(entry10a.o)
    0x080000fc   0x080000fc   0x00000000   Code   RO          723    .ARM.Collect$$$$0000000F  mc_w.l(entry11a.o)
    0x080000fc   0x080000fc   0x00000004   Code   RO          712    .ARM.Collect$$$$00002712  mc_w.l(entry2.o)
    0x08000100   0x08000100   0x00000096   Code   RO          380    .emb_text           port.o
    0x08000196   0x08000196   0x00000002   PAD
    0x08000198   0x08000198   0x0000001c   Code   RO            4    .text               stm32f10x.o
    0x080001b4   0x080001b4   0x0000006e   Code   RO           10    .text               cortexm3_macro_rvds.o
    0x08000222   0x08000222   0x00000002   PAD
    0x08000224   0x08000224   0x00000324   Code   RO           13    .text               stm32f10x_usart.o
    0x08000548   0x08000548   0x000002e0   Code   RO           44    .text               stm32f10x_gpio.o
    0x08000828   0x08000828   0x000003e0   Code   RO           83    .text               stm32f10x_nvic.o
    0x08000c08   0x08000c08   0x0000037c   Code   RO           95    .text               stm32f10x_rcc.o
    0x08000f84   0x08000f84   0x000000c4   Code   RO          121    .text               stm32f10x_systick.o
    0x08001048   0x08001048   0x00000864   Code   RO          133    .text               stm32f10x_tim.o
    0x080018ac   0x080018ac   0x000000e0   Code   RO          150    .text               serial.o
    0x0800198c   0x0800198c   0x000000f8   Code   RO          244    .text               timertest.o
    0x08001a84   0x08001a84   0x000001ac   Code   RO          262    .text               main.o
    0x08001c30   0x08001c30   0x000012f4   Code   RO          295    .text               tasks.o
    0x08002f24   0x08002f24   0x00000094   Code   RO          338    .text               list.o
    0x08002fb8   0x08002fb8   0x0000096e   Code   RO          353    .text               queue.o
    0x08003926   0x08003926   0x00000002   PAD
    0x08003928   0x08003928   0x000000f0   Code   RO          381    .text               port.o
    0x08003a18   0x08003a18   0x0000013c   Code   RO          410    .text               heap_2.o
    0x08003b54   0x08003b54   0x00000504   Code   RO          425    .text               timers.o
    0x08004058   0x08004058   0x00000024   Code   RO          446    .text               mc_w.l(memcpya.o)
    0x0800407c   0x0800407c   0x0000002c   Code   RO          725    .text               mc_w.l(uidiv.o)
    0x080040a8   0x080040a8   0x00000024   Code   RO          740    .text               mc_w.l(init.o)
    0x080040cc   0x080040cc   0x00000020   Code   RO          495    i.__0printf$1       mc_w.l(printf1.o)
    0x080040ec   0x080040ec   0x0000000e   Code   RO          752    i.__scatterload_copy  mc_w.l(handlers.o)
    0x080040fa   0x080040fa   0x00000002   Code   RO          753    i.__scatterload_null  mc_w.l(handlers.o)
    0x080040fc   0x080040fc   0x0000000e   Code   RO          754    i.__scatterload_zeroinit  mc_w.l(handlers.o)
    0x0800410a   0x0800410a   0x00000002   PAD
    0x0800410c   0x0800410c   0x00000154   Code   RO          502    i._printf_core      mc_w.l(printf1.o)
    0x08004260   0x08004260   0x00000014   Data   RO           96    .constdata          stm32f10x_rcc.o
    0x08004274   0x08004274   0x00000010   Data   RO          134    .constdata          stm32f10x_tim.o
    0x08004284   0x08004284   0x00000020   Data   RO          750    Region$$Table       anon$$obj.o


    Execution Region RW_IRAM1 (Exec base: 0x20000000, Load base: 0x080042a4, Size: 0x00004780, Max: 0x00005000, ABSOLUTE)

    Exec Addr    Load Addr    Size         Type   Attr      Idx    E Section Name        Object

    0x20000000   0x080042a4   0x00000008   Data   RW          151    .data               serial.o
    0x20000008   0x080042ac   0x00000008   Data   RW          245    .data               timertest.o
    0x20000010   0x080042b4   0x0000000c   Data   RW          263    .data               main.o
    0x2000001c   0x080042c0   0x00000040   Data   RW          297    .data               tasks.o
    0x2000005c   0x08004300   0x00000004   Data   RW          382    .data               port.o
    0x20000060   0x08004304   0x00000018   Data   RW          412    .data               heap_2.o
    0x20000078   0x0800431c   0x00000014   Data   RW          427    .data               timers.o
    0x2000008c        -       0x000000c8   Zero   RW          296    .bss                tasks.o
    0x20000154        -       0x00004400   Zero   RW          411    .bss                heap_2.o
    0x20004554        -       0x00000028   Zero   RW          426    .bss                timers.o
    0x2000457c   0x08004330   0x00000004   PAD
    0x20004580        -       0x00000200   Zero   RW            1    STACK               stm32f10x.o


==============================================================================

Image component sizes


      Code (inc. data)   RO Data    RW Data    ZI Data      Debug   Object Name

       110          0          0          0          0        448   cortexm3_macro_rvds.o
       316         20          0         24      17408       3308   heap_2.o
       148          0          0          0          0       2002   list.o
       428        104          0         12          0       4371   main.o
       390         30          0          4          0       7304   port.o
      2414         10          0          0          0      27449   queue.o
       224          8          0          8          0      39434   serial.o
        28          4        236          0        512        816   stm32f10x.o
       736         16          0          0          0       9635   stm32f10x_gpio.o
         0          0          0          0          0       6368   stm32f10x_lib.o
       992         30          0          0          0       7308   stm32f10x_nvic.o
       892         38         20          0          0       8478   stm32f10x_rcc.o
       196          0          0          0          0       1629   stm32f10x_systick.o
      2148         12         16          0          0      31880   stm32f10x_tim.o
       804         10          0          0          0      30409   stm32f10x_usart.o
      4852        280          0         64        200      35310   tasks.o
      1284         58          0         20         40      11088   timers.o
       248         20          0          8          0      12954   timertest.o

    ----------------------------------------------------------------------
     16216        640        304        140      18164     240191   Object Totals
         0          0         32          0          0          0   (incl. Generated)
         6          0          0          0          4          0   (incl. Padding)

    ----------------------------------------------------------------------

      Code (inc. data)   RO Data    RW Data    ZI Data      Debug   Library Member Name

         0          0          0          0          0          0   entry.o
         0          0          0          0          0          0   entry10a.o
         0          0          0          0          0          0   entry11a.o
         8          4          0          0          0          0   entry2.o
         4          0          0          0          0          0   entry5.o
         0          0          0          0          0          0   entry7b.o
         0          0          0          0          0          0   entry8b.o
         8          4          0          0          0          0   entry9a.o
        30          0          0          0          0          0   handlers.o
        36          8          0          0          0         68   init.o
        36          0          0          0          0         68   memcpya.o
       372         14          0          0          0        184   printf1.o
        44          0          0          0          0         80   uidiv.o

    ----------------------------------------------------------------------
       540         30          0          0          0        400   Library Totals
         2          0          0          0          0          0   (incl. Padding)

    ----------------------------------------------------------------------

      Code (inc. data)   RO Data    RW Data    ZI Data      Debug   Library Name

       538         30          0          0          0        400   mc_w.l

    ----------------------------------------------------------------------
       540         30          0          0          0        400   Library Totals

    ----------------------------------------------------------------------

==============================================================================


      Code (inc. data)   RO Data    RW Data    ZI Data      Debug   

     16756        670        304        140      18164     238559   Grand Totals
     16756        670        304        140      18164     238559   ELF Image Totals
     16756        670        304        140          0          0   ROM Totals

==============================================================================

    Total RO  Size (Code + RO Data)                17060 (  16.66kB)
    Total RW  Size (RW Data + ZI Data)             18304 (  17.88kB)
    Total ROM Size (Code + RO Data + RW Data)      17200 (  16.80kB)

==============================================================================

